:020000040800F2
:1000000028070020D500000861260008211F0008ED
:1000100000000000000000000000000000000000E0
:100020000000000000000000000000007D32000819
:100030000000000000000000E52F0008C53900089E
:10004000000000000000000000000000E7000008C1
:10005000E7000008CD140008F11400081515000889
:100060000000000000000000000000000000000090
:10007000E7000008FD3F0008E7000008000000005E
:1000800000000000E700000800000000113A00082E
:100090000000000000000000000000000000000060
:1000A0000000000000000000000000000000000050
:1000B0000000000000000000000000000000000040
:1000C0000348854600F0DEFA0048004785530008E3
:1000D000280700200448804704480047FEE7FEE761
:1000E000FEE7FEE7FEE7FEE7C9390008C1000008A9
:1000F00030B50B46014600202022012409E00D46C0
:10010000D5409D4205D31D469540491B2546954047
:1001100040191546521E002DF1DC30BD70B500248B
:100120002546002801DA01244042002901DA012590
:100130004942FFF7DDFFAC4200D04042002C00D026
:10014000494270BD10B5202A04DB0146203A914097
:10015000002010BD914020239C1A0346E340194320
:10016000904010BDD2B201E00270401C491EFBD28B
:1001700070470022F6E710B513460A4604461946B2
:10018000FFF7F0FF204610BD024670B54A40D30F7E
:10019000DB0740002DD04A002AD0010E140E0002C9
:1001A00012020919400A520A8418E5010446544310
:1001B000000A120A2E045043A4194219200CC54308
:1001C000AA18120C0125AD03521C521912047F39D2
:1001D000240400D0521C104301D44000491EC2B276
:1001E0000C06C0092018401C4008802A02D003E0F9
:1001F000002070BD40084000002900DA00201843AC
:1002000070BD0000F0B507460846584087B0C00FE3
:10021000049048000E46590040084908BC1A88411D
:1002200005D2384631461E4617460B460246580050
:10023000400810434CD0300D039040055900400D4C
:10024000490D0590401A0290402872DA18030121E6
:10025000000B09050843019004980092002805D07E
:100260000199524200208841009201900298402159
:100270000A1A01990098FFF765FF05460C466B4680
:1002800007CB00F04BF9C0197141039A0E0D002302
:10029000D71756401A467A40164344D0049A002A8B
:1002A0002DD0029A012A039A15DC1205C01A914139
:1002B00001263605001C7141D20F059ED20700931E
:1002C000019202962A46234600F089F907B0F0BD54
:1002D00038463146FAE71605224A0F46B218C01AC8
:1002E000B74101210905001C4F4100187F4111460B
:1002F00018187941E20F10436D19644113E0E207C9
:100300006D0815436408C2071443039A01261205B9
:10031000C01A91413605001C7141CE074008304398
:100320004908C01851412A46234600F04BF9CDE751
:10033000FFE7049801224000C117121A00238B41E5
:1003400004983146C417381AA141EEE730B40124AD
:10035000E407634030BC55E730B40124E407614052
:1003600030BC4FE70000E0FFF0B51FB488B00B9938
:100370000998002448400999C00F4900490809918B
:10038000C0070B990090490049080B9109990898FA
:10039000A64608431CD00B990A98084318D0099820
:1003A00001244000420D4800410D09982405000336
:1003B000000B204309900B980003000B20430B9087
:1003C00050181C494018002201901446104605E0C0
:1003D000002001460DB0F0BD032801DA034600E01D
:1003E00003239C46C11A0AAE0AE05F0008ADED5B2C
:1003F0004F00F75B7D430027AA187C41491C5B1E18
:100400006145F2DD410004AB5A522104120C0A434B
:10041000240C401C0828DFDB0198029000997046EC
:1004200001910090059B049A0799069800F0D7F86F
:10043000D0E700000DFCFFFFC217C10F504010B500
:100440004018CA079623002100F083F810BD000071
:100450000EB5C217C10F5040CA0740180021054B06
:100460000293019200910A460B4600F0B8F803B0DF
:1004700000BD0000330400000EB5054902910021C3
:1004800000910A460B46019100F0A9F803B000BDA7
:1004900033040000410040020122400AD205090E47
:1004A00080187F2901DA00207047962903DC962204
:1004B000511AC8407047963988407047C20FD2071A
:1004C000400040080BD0C10D0723DB01C9184002D2
:1004D0000905400A1143C208400711437047002034
:1004E00001467047CB0FDB07490010B549080246AB
:1004F0000A4307D00A0D07240903E401090B121B64
:10050000002A01DC002010BDC900440F0C43C100CB
:10051000E018D205801800F014F810BD10B5202A9C
:1005200006DBCB170846203A1041C1170B4306E003
:100530000B461341D0402024A21A9140084319468B
:1005400010BD002904DA401C490001D140084000D8
:10055000704770B40024050C05D11024000402D1AA
:10056000002921D01124050E01D100020834050F05
:1005700001D10001241D850F01D18000A41C002899
:1005800001DB4000641C002908D020252E1B0D46ED
:10059000F540A14000D001212943084301061B1B5F
:1005A000000ADB1D02D5002070BC7047DB0518185F
:1005B00080180029F8DA401C4900F5D170BC4008C9
:1005C0004000704710B5002B08DA0024401C614140
:1005D00092185B411A4301D14008400010BDF0B5AC
:1005E0001FB482B005460C0003D0084603F034FD6A
:1005F00002E003F031FD20300246009021462846FB
:10060000FFF7A0FD049B059A04460F4618431143CB
:10061000084314D0184610431BD0009840210A1AF2
:100620001846059900F040F805460E46009A0599CF
:100630000498FFF787FD084305D0012004E0204619
:10064000394607B0F0BD0020C11705430E432C43C7
:10065000374300990E986305401A7905E40A002291
:100660000C43FD0A0A3002D500200146E9E70105E6
:10067000101969410C9C0D9D00196941FFF7A2FFFB
:10068000DFE70000064C0125064E05E0E36807CCD5
:100690002B430C3C98471034B442F7D3FFF714FDBA
:1006A00098580008B858000810B5202A04DB0846FE
:1006B000203AD040002110BD0B46D340D04020242A
:1006C000A21A91400843194610BD00BFFEE7000082
:1006D00008B501203049096801432F4A11601146CD
:1006E00009680140009100BF00BF00072A49403956
:1006F000C96B0143284A403AD1631146C96B014096
:10070000009100BF00BF00BF10460068911508436C
:100710001146086000BF00BF00BF1F484038006896
:10072000012189020840800A0028F5D000201A49DA
:10073000403989680F22120291430143164A403A18
:10074000916000BF00BF11468968C908C900014314
:10075000916000BF00BF00BF0F484038806838215B
:1007600008400028F7D100BF0B49403989680722AB
:10077000120391430143084A403A916000BF074881
:1007800001F07AFE06480069022108430449086125
:10079000024801F09FFE08BD4010024000366E0185
:1007A00000E000E0F0B58DB03049C87800F086F880
:1007B0000B902E49887800F081F80A900A210B9856
:1007C000FFF7ACFC0446FFF737FE294908600A989A
:1007D000FFF752FE0446274A274BFFF7C5FD03915A
:1007E00002900A210B98FFF799FC08460191FFF748
:1007F0002FFE0446214A224BFFF7B6FD0646039B17
:10080000029AFFF7FFFC0791069019480068FFF76E
:1008100055FE05910490079B069AFFF7F3FC09919A
:100820000890FFF75FFE12490860164910480068FB
:10083000FFF7AAFC0E49086008460068FFF72AFE89
:1008400011490880084600881049884205DB0E4897
:1008500000880E49C831884203DD4B2000010A4957
:100860000880094800880DB0F0BD00002000FF1F7F
:1008700020000020FCA9F1D24D62503F9A9999992D
:100880009999B93F00007A44240000204C040000EC
:1008900010B5092000F080FE07494860FFF782FF8D
:1008A000054988600A46516892681303981AFFF751
:1008B0001FFC0149086010BD08010020014600BF6F
:1008C000F020084000110A23584302460807000F91
:1008D0008018C0B270470000002002490860024939
:1008E00008607047300A0020400A002000B585B03B
:1008F000FE48407B00287CD0FC488069401CFB49B6
:100900008861C969884203D20020F84908709AE3D7
:10091000F6488069F549096A884204D8F3482030CE
:10092000C079002872D00021F0482030C1712038F1
:10093000007B082832D1ED48407BC10F0490081895
:10094000401041000498401A1CD1E94800780390F7
:1009500000F054FE049000201222019000920290B8
:10096000024606211620049B02F08AFC0120422246
:100970000190E04B009202901C221621002002F010
:100980007FFC9FE1012042220190DB4B009202900C
:100990001C221621002002F073FC93E1D348007B57
:1009A000072834D1D148407BC10F0490081840106B
:1009B00041000498401A1DD1CD480078039000F002
:1009C0001DFE049000201222019000920290024627
:1009D00006211620049B02F053FC012042220190C4
:1009E000C44B009202901C221621002002F048FC09
:1009F00068E133E3012042220190BF4B0092029054
:100A00001C221621002002F03BFC5BE189E1B74883
:100A1000007B042832D1B548407BC10F04900818F0
:100A2000401041000498401A1CD1B148007803904E
:100A300000F0E4FD04900020122201900092029048
:100A4000024606211620049B02F01AFC01204222D5
:100A50000190A84B009202901C221621002002F067
:100A60000FFC2FE1012042220190A34B0092029043
:100A70001C221621002002F003FC23E19B48007B8E
:100A800013287DD19948407B2C280FD198480078B5
:100A9000039000F0B3FD04900020542201900092D6
:100AA00002901C221146049B02F0EAFB8F48203082
:100AB000407A002839D18D48407B2C280DD1012067
:100AC00000F09CFD049000205422019000920290BE
:100AD0001C221146049B02F0D3FB8448407B16285D
:100AE00013DD012000F07AFD0490012042220190E4
:100AF000009202907D48407B1838C0B203901C22BF
:100B00000221049B02F0BCFBADE0012042220190D7
:100B1000009202907548407B801EC0B2764B1C222A
:100B20000221049002F0ACFB9DE070482030407A36
:100B300001283BD16D48407B2C280DD1022000F0CC
:100B40005DFD0490002054220190009202901C222E
:100B50001146049B02F094FB6448407B162815DD87
:100B6000022000F03BFD04900120422201900092FF
:100B700002905E48407B1838C0B203901C2200E00F
:100B800077E00221049B02F07BFB6CE00120422213
:100B90000190009202905548407B801EC0B2564B97
:100BA0001C220221049002F06BFB5CE04F482030D5
:100BB000407A022829D14D48407B162814DD0120B7
:100BC00000F00CFD0490012042220190009202905E
:100BD0004648417B2C20401AC0B203901C220221BF
:100BE000049B02F04DFB3EE0012042220190009266
:100BF00002903E48407B1621081AC0B23E4B1C2290
:100C00000221049002F03CFB2DE038482030407A6D
:100C1000032828D13548407B162814DD022000F037
:100C2000DDFC0490012042220190009202902F48A6
:100C3000407B2C21081AC0B203901C220221049B85
:100C400002F01EFB0FE00120422201900092029070
:100C50002648407B1621081AC0B2274B1C220221CD
:100C6000049002F00DFB2148407B401E1F49487351
:100C700028E01E48007B122824D11C48407B1828FD
:100C80001BDC1A48407B022817DD0120422201901C
:100C9000009202901548407B001FC0B2164B1C22E8
:100CA0000221049002F0ECFA1048407B042804DC96
:100CB00002F084FB002001F08DFC0C48407B401EBC
:100CC0000A4948730020094988610846407B401E54
:100CD00048730846407B002822D102F06FFB0020B9
:100CE00001F078FC0148007B012807E08400002027
:100CF00030000020555800088F57000806D1052005
:100D0000FE4908700020FE49087302E00020FC49FB
:100D100008730021FA48203001710020F84908705A
:100D200091E10120F64908700846007B012829D18D
:100D300008468069012806D102F040FBFF2000042C
:100D400001F048FC7FE1EE488069322806D102F0CC
:100D500035FBFF20000201F03DFC74E1E8488069AA
:100D6000642805D102F02AFBFF2001F033FC6AE180
:100D7000E34880699628D3D302F020FB002001F0DD
:100D800029FC60E1DE48007B06282AD1DC48806926
:100D900001281CD1DB480078039000F02FFC0021D3
:100DA000049012200191029100900A46062116201B
:100DB000049B02F065FA012042220190D24B00927E
:100DC00002901C221621002002F05AFA3BE1CC4886
:100DD0008069C828A4D302F0F1FA002001F0FAFBE0
:100DE00031E1C748007B11289AD1C54840694228A3
:100DF00015D31220C24908730021C1482030017167
:100E0000C17100200090C148406BC1490969084385
:100E10000346192200210490182002F08FFAB848E6
:100E20000069401CB649086106288BD9002008617A
:100E300008462030807A00287ED00846406916286F
:100E400024D2B0480078039000F0D8FB0490002032
:100E50001222019000920290024606211620049B65
:100E600002F00EFAA7480078039000F0B7FB049058
:100E700001204222019000920290A148007D03903F
:100E80001C220221049B02F0FBF9D7E00020039012
:100E90000490A048017F684601739E48417F6846E0
:100EA00041739C48817F684681739A48C17F684638
:100EB000C173984820300178684601749548203005
:100EC0004178684641743C2002902FE00298801FD0
:100ED00090492039095C8F4A203A029811540298AF
:100EE000401F1146095C0298401C11540298001FD3
:100EF0001146095C0298801C11540298C01E1146CC
:100F0000095C0298C01C11540298801E1146095CAD
:100F10000298001D11540298401E1146095C029867
:100F2000401D11540298801FC0B2029002980528FB
:100F3000CCDA6846007B00E015E07649203908707D
:100F40006846407B48706846807B88706846C07BF6
:100F5000C8706846007C08716846407C487116205D
:100F600002F0D6F96AE00020039004906948017FFE
:100F7000684601736748417F684641736548817FD1
:100F8000684681736348C17F6846C17361482030F9
:100F90000178684601745F482030417868464174A2
:100FA0003C2002902FE00298801F5A492039095CAA
:100FB000584A203A029811540298401F1146095C81
:100FC0000298401C11540298001F1146095C0298B7
:100FD000801C11540298C01E1146095C0298C01C66
:100FE00011540298801E1146095C0298001D11548C
:100FF0000298401E1146095C0298401D1154029847
:10100000801FC0B2029002980528CCDA6846007BA7
:101010004049203908706846407B48706846807BAC
:1010200088706846C07BC8706846007C0871684656
:10103000407C4871162002F06BF900BF30484069CF
:10104000801C2F4948613448C0780421084000289A
:1010500003D001212A482030017213E22E48C078C3
:101060000221084000287DD02548203080790028C2
:1010700031D0234820308079401EC1B22048203032
:1010800081718079012824DB00201D4948610861B5
:1010900000211B4820300171C1711A48007803906B
:1010A00000F0ACFA0490002012220190009202900D
:1010B000024606211620049B02F0E2F8012042229B
:1010C0000190164B009202901C221621002002F083
:1010D000D7F805B000BD00F0F3FA00F029FB08488E
:1010E0000069401C0649086106287DD90020086176
:1010F0000846406916283DD2084611E0B400002099
:10110000840000203000002055580008C000002056
:1011100008010020B4010020FC0000208F570008C7
:101120004069002810D1D8480078039000F066FA92
:101130000021049012200191029100900A4606219C
:101140001620049B02F09CF8CF480078039000F032
:1011500045FA012242210192029200910490CB486B
:10116000007D00E08EE003901C220221049B02F02F
:1011700087F86BE0002003900490C548017F684623
:101180000173C348417F68464173C148817F684607
:101190008173BF48C17F6846C173BD482030017864
:1011A00068460174BA4820304178684641743C2052
:1011B000029030E00298801FB54920390A5C0298FD
:1011C0000A540298401F095CB14A203A0298401C18
:1011D00011540298001F1146095C0298801C11549A
:1011E0000298C01E114600E035E0095C0298C01C60
:1011F00011540298801E1146095C0298001D11547A
:101200000298401E1146095C0298401D1154029834
:10121000801FC0B2029002980528CBDA6846007B96
:101220009B49203908706846407B48706846807B3F
:1012300088706846C07BC8706846007C0871684644
:10124000407C4871162002F063F800BF8F48406967
:10125000801C8E4948618F48406B8F49096908435B
:101260000121C902084389494860012008708B4860
:10127000C07804210840002803D001218348203091
:101280000172FFE08548C078042108400028F8D0AA
:1012900081482030007800282AD17F48406A804960
:1012A000884243D320210520000701F028F80028B8
:1012B0003CD0794820304078401CC1B2764820307C
:1012C0004170322913DB0021417001210170182087
:1012D0006E49087301216D48203001710021C171F0
:1012E0000020034602460146009002F027F8F0E68F
:1012F0006948406A7D21C900884216D8202105200E
:10130000000700F0FCFF00280CD1634820308078F3
:10131000401CC1B2604820308170322902DB0021BC
:1013200081700170002059490870D2E65A48203077
:10133000007D002827D0FFF7ABFA5748006841210D
:101340008901884206D220210520000700F0D7FF3E
:10135000002815D05048806A401C4F4988621428E4
:1013600011D300214C482030017505204D490870EB
:1013700001214948203001734B484749086302E086
:1013800000204549886241482030007A002808D072
:1013900000213E482030017202F010F8002001F0D8
:1013A00019F900F08DF900F0C3F93B482030007BBB
:1013B00000284CD138482030407B642808DA364871
:1013C0002030407B401CC1B233482030417303E0E1
:1013D00000213148203041732F4800690121C902A2
:1013E00088432C49496B0843284948602A482030E3
:1013F000407B322806DA084640680121C9020843CA
:1014000022494860012021490870FFF741FA22482B
:1014100000682649884206D220210520000700F0F6
:101420006EFF00282ED01C48806A401C1A49886232
:10143000FF212D31884225D305201A49087001214A
:101440001548203001731848134908631AE000203A
:10145000114988620846006B002810D00846006BCE
:10146000401E0863084600690121C9020843094972
:10147000496B0843054948600120087002E00020DC
:101480000249087000BF24E63000002084000020DC
:10149000B4010020C000002008010020FC00002052
:1014A0007E040000100A0020701700005E1000008B
:1014B00008B505494143009100BF00BF00994A1E8D
:1014C00000920029F9D108BDB80B000010B5012029
:1014D00000F076FE002802D0012000F0CBFD0220B3
:1014E00000F06EFE002802D0022000F0C3FD10BD07
:1014F00010B5042000F064FE002802D0042000F0A3
:10150000B9FD082000F05CFE002802D0082000F0A1
:10151000B1FD10BD10B5102000F052FE002802D021
:10152000102000F0A7FD202000F04AFE002802D085
:10153000202000F09FFD10BD10B5074B1A6AFF2355
:10154000034314469C43224613460B43AA242343D9
:10155000014C236210BD00000020024070B504461B
:1015600000F0D8FC051905E000F0D4FCA84201D336
:10157000032070BD06480069012109040840000CE1
:101580000028F1D10348024908610020F1E700007A
:10159000002002401180000070B50446002502F0D2
:1015A00021FEE0B202F08CFD02F02AFE0A4800F0B3
:1015B00035FD00BF084800F003FD0128FAD100BF47
:1015C00004200549086000BF00BF0846006C80B2D7
:1015D0000546284670BD000000240140014601294F
:1015E00001D104487047022901D10348FAE70148B4
:1015F000F8E70000D15700081358000801460129F8
:1016000001D104487047022901D10348FAE7014893
:10161000F8E70000E75600083B57000810B52448DB
:10162000C07802210840002803D0192021490875FC
:1016300010BD2048007D002805D01E48007D401EBA
:101640001C49087532E0FFF723F91948C0780421D6
:101650000840002826D01848007804281ADC1548CD
:101660000068154909788900144A5158884211D3F5
:1016700010488069401C0F49886132280AD3002035
:1016800088610D480078401C0B490870002009490A
:101690000873C86108480078052807DB052006495B
:1016A000087003E0002003498861C86100BFBFE7FC
:1016B000FC00002008010020100A002080560008CD
:1016C00003480078800003490858034908617047BF
:1016D000100A0020AC560008080100201048C0780D
:1016E0000221084000281AD00E480078012805D1B0
:1016F0000D480068401D0C49086008E00948007862
:10170000022804D1084800680930074908600648E3
:1017100000680649884202D90846034908607047B4
:10172000FC00002030000020000A0020E0930400AC
:10173000224800682249884203D8052021490870C0
:1017400026E01E4800682049884203D804201D492D
:1017500008701DE0194800681C49884203D803201E
:101760001849087014E0154800681949884203D8E0
:101770000220144908700BE010480068154988429F
:1017800003D801200F49087002E000200D490870BD
:101790000020114948630B480078012806DB0948FE
:1017A000007880000D4908580B4948630A48406B8F
:1017B000202108430849486370470000000A0020C0
:1017C00070940000200A0020E028010050BD0100B4
:1017D000C051020030E60200C0000020945600080C
:1017E00010B50220FFF7D8FE0B49886108468069D2
:1017F0000A4909684843000B0749C8610520FFF7FB
:10180000CBFE054988610846806904490968484358
:10181000000B0149086210BDC00000200801002033
:1018200010B50024FFF734F8002016490873084665
:10183000006815490969884203D9052013490870D1
:101840001DE01048006810490968884206D8002049
:101850000E49087001200B49087310E001240BE0C9
:1018600008480068A100084A5158884202D8074831
:10187000047003E0601CC4B2042CF1DD00BFFFF76C
:101880001FFF10BD080100206C560008100A002040
:1018900010B500240720FFF77FFE0446204610BD48
:1018A00010B5FEF7F5FF0420FFF776FE0449486205
:1018B00008460068496A4843000B0149486210BD68
:1018C0000801002010B50020C04300F0C7FD08212A
:1018D0000520000700F03AFD0221644800F036FDC3
:1018E00002210520000700F027FD01210520000747
:1018F00000F022FD012211460520000700F048FDFE
:10190000002201210520000700F064FD03220121CF
:101910000520000700F088FD8021554800F00CFDEF
:1019200001228021524800F033FD002280215048DE
:1019300000F050FD032280214D4800F075FD032288
:1019400001214B4800F024FD00220421484800F00A
:101950001FFD0421464800F0EFFC00220821444806
:1019600000F016FD0821424800F0E6FC002210219C
:101970003F4800F00DFD10213D4800F0DDFC002245
:1019800020213B4800F004FD2021394800F0D4FC20
:1019900000220221364800F0FBFC022211463448A6
:1019A00000F028FD032280210520000700F0F0FC54
:1019B000002280210520000700F01CFD00222021CC
:1019C0000520000700F0E4FC01222021052000078B
:1019D00000F010FD40210520000700F0ADFC0122C1
:1019E00040210520000700F0D3FC00224021052003
:1019F000000700F0EFFC032240210520000700F063
:101A000013FD012202210520000700F0C1FC002285
:101A100002210520000700F0DDFC03220221052041
:101A2000000700F001FD012208210520000700F059
:101A3000AFFC002208210520000700F0CBFC0122AA
:101A400002210A4800F0A4FC00220221074800F00D
:101A5000C1FC032210210520000700F099FC03229D
:101A60000121024800F094FC10BD00000008005065
:101A70000004005010B50120C00200F0EDFA012072
:101A8000C00300F0E9FA724800F03DFD714800F033
:101A90003AFD08210520000700F05EFC0122082124
:101AA0000520000700F081FC002208210520000726
:101AB00000F098FC0221684800F04EFC012202214F
:101AC000654800F072FC00220221634800F08AFCA5
:101AD000032210210520000700F067FC00221021DE
:101AE0000520000700F093FC032201215A4800F072
:101AF0005CFC00220121584800F089FC02210520ED
:101B0000000700F01FFC012202210520000700F061
:101B10004CFC002202210520000700F063FC032298
:101B200002210520000700F08CFC012105200007A0
:101B300000F008FC012211460520000700F035FCEA
:101B4000002201210520000700F04CFC03220121A6
:101B50000520000700F075FC8021404800F0F2FBF2
:101B6000012280213D4800F020FC002280213B48DA
:101B700000F038FC03228021384800F062FC032288
:101B80000121364800F011FC00220421334800F006
:101B90000CFC0421314800F0D5FB002208212F481D
:101BA00000F003FC08212D4800F0CCFB002210219E
:101BB0002A4800F0FAFB1021284800F0C3FB00225D
:101BC0002021264800F0F1FB2021244800F0BAFB38
:101BD00000220221214800F0E8FB03228021052099
:101BE000000700F0E2FB002280210520000700F042
:101BF0000EFC002220210520000700F0D6FB012268
:101C000020210520000700F002FC402105200007EC
:101C100000F098FB012240210520000700F0C5FBE1
:101C2000002240210520000700F0DCFB03224021B8
:101C30000520000700F005FC022204210520000712
:101C400000F0E5FB01224021044800F0E0FB10BD5C
:101C5000002C01400020004000080050000400500B
:101C6000012007494969C2071143054A51611146DC
:101C70004969C90FC907002900D00020704700003A
:101C80000020024070B50446012500BF734800786B
:101C9000012801D1022070BD01207049087000BFE9
:101CA00000BF6F494968072252031140480B6D4934
:101CB000096882006C4B9A581288D205D20D914265
:101CC00046D16849496882009A5812681201920DFB
:101CD00091423DD16349096982009A581268920382
:101CE000D20D914234D15F49896882009A58928816
:101CF000D205D20D91422BD15A49C96882009A5817
:101D000052681201120D914222D15649496982004E
:101D10009A5892689203920B914219D1514989695C
:101D200082009A58D2689203920B914210D14D4989
:101D3000C96982009A58128A92B2914208D14949DF
:101D4000096A82009A5812699200920C914248D016
:101D500000BF8100444A51580988C905C90D414A4C
:101D600011608100404A515809680901890D3D4AB6
:101D7000516081003C4A515809688903C90D394AAC
:101D800011618100384A51588988C905C90D354A01
:101D900091608100344A515849680901090D314A5E
:101DA000D1608100304A515889688903890B2D4AD6
:101DB000516181002C4A5158C9688903890B294A0D
:101DC00091618100284A5158098A89B2254AD16116
:101DD0008100254A515809698900890C214A1162FC
:101DE00000BF00BF2078C007C00F002804D0A08823
:101DF000C04380B21D49C862022120680840002803
:101E000005D0E1680902A068084318494862082122
:101E100020680840002803D061692069FFF78CFB27
:101E200012484069012149040843104948610846A5
:101E300040690121090608430C494861FF2009490E
:101E4000803908607D20C000FFF788FB054600BF91
:101E500000200249087000BF28461CE76C000020E3
:101E600000100240002102402856000800200240D5
:101E7000044840690121C90608430249486101201C
:101E8000704700000020024001200749496982078D
:101E90001143054A516111464969820711400029E1
:101EA00000D00020704700000020024001200949B6
:101EB00049698207114000290BD00749054AD160C2
:101EC0000649D1601146496982071140002900D1B5
:101ED00000207047002002403B2A19087F6E5D4CAD
:101EE000002009494969C90FC90700290BD00749D2
:101EF000054A91600649916011464969C90FC907B1
:101F0000002900D0012070470020024023016745CE
:101F1000AB89EFCD01480068704700001400002035
:101F200000BFFEE710B512480078002809D011481C
:101F3000007811490978884203DC0E48007854285B
:101F400000DD10BD0D4C0B4B1B789B1CE25C094B5C
:101F50001B785B1CE15C2346064C2478185D02F07C
:101F60005FFB04480078C01C0249087000BFE8E726
:101F70005600002055000020580000209401002049
:101F800070B504460D460026204600F01FF80028D4
:101F900010D1A96868680843E9680843E168074AFE
:101FA00011400843E06020690001000929680843E6
:101FB000206100E00126304670BD0000C7BFFFFF72
:101FC000014608680422104080087047014688686E
:101FD000C007C00F012250405040704770B5054601
:101FE0000C4600262846FFF7F1FF00280CD1616857
:101FF00020680843A1680843E1680843E968044A87
:1020000011400843E86000E00126304670BD000042
:102010003FC2FEFF4A05520D826270478168024A44
:102020001140091D81607047E8FFFF7F0249096880
:102030008143014A116070474010024008B50549CC
:1020400009680143034A1160114609680140009183
:1020500000BF08BD4010024008B5054909680143AA
:10206000034A1160114609680140009100BF08BD94
:10207000401002400149C86070470000001802404B
:10208000024949688143014A516070478018024003
:10209000024949688143014A516070470018024073
:1020A000024909688143014A116070478018024063
:1020B000024909688143014A1160704700180240D3
:1020C000024949680143014A516070478018024043
:1020D000024949680143014A5160704700180240B3
:1020E000024909680143014A1160704780180240A3
:1020F000024909680143014A116070470018024013
:1021000070B504460025207900284ED020680028AC
:1021100051D06079002804D0012809D0022815D1B7
:102120000DE02068FFF7ACFF2068FFF7D9FF0FE054
:102130002068FFF7B5FF2068FFF7C2FF08E02068BE
:10214000FFF7CEFF2068FFF7BBFF01E0012500BFCE
:1021500000BFA07900282ED0A079012804D0022841
:102160000DD003281DD115E020681449496881432A
:10217000124A516000BF2068FFF7BAFF14E02068E0
:102180000E49096881430D4A116000BF2068FFF7BE
:102190009FFF09E02068FFF7ABFF2068FFF798FF7B
:1021A00002E00220054300BF05E02068FFF778FF4A
:1021B0002068FFF765FF284670BD00000018024048
:1021C00001460448C0680840884201D10120704798
:1021D0000020FCE70018024070B50C02230E0C042E
:1021E000220E074C8D072D0F64591D469540AC43B8
:1021F000054695402C43024D8E07360FAC5170BDFD
:1022000060180240F0B502460B46002661E001244A
:10221000B4401968214000295AD0586814680D4606
:102220004D436F00ED19AC430D464D4345432C43E0
:10223000146000BF5868012802D0586802280DD1E8
:10224000986894680D464D436F00ED19AC430D46F8
:102250004D4345432C43946000BF00BF1869D468C8
:102260000D464D436F00ED19AC430D464D434543BC
:102270002C43D46000BF5868022829D1FF2911D807
:102280005869146A0D464D434D434D43EF007D1B85
:10229000AC430D464D434D434D4345432C431462DF
:1022A00000BF15E05F69080A40430C0A60430C0A4E
:1022B0006043C400241A506AA0430C0A64430D0A08
:1022C0006C430D0A6C437C432043506200BF00BF47
:1022D000761C1868F040002899D15868012802D06F
:1022E0005868022809D1DC68186855688543074694
:1022F00067433D43556000BF00BF0020F0BD02466C
:1023000010690840884201D1012070470020FCE795
:10231000024610690840884201D101207047002020
:10232000FCE7024610690840884201D1012070474D
:102330000020FCE7816270478162704781627047CC
:102340008162704781627047816170478161704727
:1023500081617047816170478161704730B5036862
:102360000C464C4365006419A3430C464C4354434C
:102370002343036030BD30B503680C464C43650011
:102380006419A3430C464C4354432343036030BDBC
:1023900030B503680C464C4365006419A3430C46F2
:1023A0004C4354432343036030BD30B503680C46AF
:1023B0004C4365006419A3430C464C4354432343E8
:1023C000036030BD10B543688B430C465443234330
:1023D000436010BD10B543688B430C465443234300
:1023E000436010BD10B543688B430C4654432343F0
:1023F000436010BD30B5C3680C464C43650064199A
:10240000A3430C464C4354432343C36030BD30B513
:10241000C3680C464C4365006419A3430C464C4307
:1024200054432343C36030BD30B583680C464C43EE
:1024300065006419A3430C464C4354432343836013
:1024400030BD30B583680C464C4365006419A34326
:102450000C464C4354432343836030BD08B50549C3
:10246000496B0143034A51631146496B0140009196
:1024700000BF08BD0010024070B504467D25ED0088
:1024800029462046FDF734FE401E044948610020DD
:1024900088610520086100BF70BD000000E000E019
:1024A00030B50246002000BF1369DB07DB0F0124B3
:1024B00063406340002B01D0012007E04C680B68AB
:1024C0002343D468024D2C402343D36030BD000029
:1024D000FFF1BFFF014908607047000000000020C5
:1024E0000121C94301617047016849084900016041
:1024F0007047C16849084900C160704701680122FE
:102500001143016070470168012211430160704767
:10251000C16801221143C1607047C16801221143A3
:10252000C160704710B5024613681748824205D152
:1025300018467024A0434C68204303461248824248
:1025400002D01248824206D1184603242402A04336
:10255000CC682043034613608868D06200BF0888B7
:10256000906200BF0848824202D00848824203D1EC
:10257000087C106300BF00BF00BF506901242043E6
:10258000506100BF002010BD002C01400020004021
:102590000146C868C007C00F012250405040704734
:1025A00008B501460A4A1269009200BF0846421C5B
:1025B000002A00D0401C07E0054A126901231B04D1
:1025C0001A40002A00D0401E0028F5D108BD0000A6
:1025D00000E000E010B504461B480078002831D127
:1025E000012019490870052109078862FFF7D8FF03
:1025F00000201649087018E02002010E1448134A02
:1026000012788154FF2000022040010A104A0F482E
:102610000078401C115411460C480078801C0C5462
:102620000A480078C01C09490870084800785428F6
:10263000E2DB542007490870002007490870012098
:102640000649087010BD00006300002067000020EC
:102650009401002058000020550000205600002062
:1026600070470000C206D20E01219140014A11605C
:102670007047000000E100E0C206D20E0121914047
:10268000014A11607047000000E100E010B5002829
:1026900019DA1A4A03071B0F083B9B089B00D25804
:1026A0008307DC0EFF23A3409A438B071B0E84078E
:1026B000E40EA3401A43114B0407240F083CA4085E
:1026C000A4001A5118E00E4A03231B02D2188308F3
:1026D0009B00D2588307DC0EFF23A3409A438B074D
:1026E0001B0E8407E40EA3401A43054B0324240267
:1026F0001B198408A4001A5110BD00001CED00E055
:1027000000E100E010B5002819DA1A4A03071B0F90
:10271000083B9B089B00D2588307DC0EFF23A34095
:102720009A438B071B0E8407E40EA3401A43114BF8
:102730000407240F083CA408A4001A5118E00E4A0C
:1027400003231B02D21883089B00D2588307DC0E98
:10275000FF23A3409A438B071B0E8407E40EA3407C
:102760001A43054B032424021B198408A4001A51A0
:1027700010BD00001CED00E000E100E038B50024D1
:10278000FE48C078C007C00F00287CD0FB48C07846
:10279000FE210840F949C870F9480079002807D19E
:1027A0000021F74801710020F5492039487308736A
:1027B000F3482038407B002865D1F248C0780028D3
:1027C000E3D0F148007A0128DFD00020EC4920391D
:1027D0000870022105200007FFF7BCFDFA2401E084
:1027E000601EC4B2002CFBD1FEF752F8FEF768FF62
:1027F000FEF79EFFE3480079002807D0E148007902
:10280000401EE0490871E148C86203E0DF48C83073
:10281000DC49C862DE48007B00281FD00120DC496B
:1028200008730020DB4908700420D549203908735B
:102830000121D3480171C171FEF742FFFEF778FF15
:1028400000200090CF48406BD149096908430346F6
:102850000F220021142000F071FD38BDCC48006823
:10286000CA491E39884221D80120C949087300206D
:10287000C84908700420C249203908730121C048A2
:102880000171C17100E0FDE1FEF71AFFFEF750FF94
:1028900000200090BB48406BBD49096908430346CE
:1028A0000F220021142000F049FDD6E7B848006847
:1028B000B949884211D80021B54820300173002061
:1028C000B34988620863AD48C078042108400028F5
:1028D00003D00121AE48203001750020A9490870BD
:1028E000487000F04BFFAA48007B002803D1A9489C
:1028F000007800281FD10120A54908730020A549B0
:10290000087004209E492039087301219C480171F8
:10291000C171FEF7D5FEFEF70BFF0020009099482D
:10292000406B9B490969084303460F22002114208C
:1029300000F004FD91E70021924820300176322416
:10294000082105200007FFF7FBFC01E0601EC4B270
:10295000002CFBD10220FEF71FFE8A498861082166
:1029600005200007FFF7F6FC86488069FF21090172
:10297000884207D983482030007E401CC1B281487C
:10298000203001767D20C00001F0B8FC32240821FF
:1029900005200007FFF7D4FC01E0601EC4B2002C44
:1029A000FBD10220FEF7F8FD764988610821052059
:1029B0000007FFF7CFFC73488069FF2109018842B7
:1029C00007D970482030007E401CC1B26D482030CD
:1029D00001766F480068E1210901884204D86E48F9
:1029E000F0386849486203E06B48DC386549486262
:1029F000644880696349496A88421AD80620604958
:102A000020390873FEF794FEFEF75AFE01215C4858
:102A100001710021C171002000905A48406B5C494F
:102A2000096908430346C8220021012000F086FC02
:102A300013E754482030007E022819DB002151485A
:102A40002030017607204E492039087301214C4877
:102A50000171C171002000904A48406B4C490969DE
:102A60000843034619220021042000F067FCF4E625
:102A70000021444820300176322402214748FFF7E4
:102A80005FFC01E0601EC4B2002CFBD10520FEF704
:102A900083FD3C49886102214048FFF75BFC3948CF
:102AA0008069FF210901884207D936482030007E1D
:102AB000401CC1B23348203001767D20C00001F0B7
:102AC0001DFC322402213548FFF73AFC01E0601E6C
:102AD000C4B2002CFBD10520FEF75EFD29498861B8
:102AE00002212E48FFF736FC26488069FF210901A4
:102AF000884207D923482030007E401CC1B22148BB
:102B0000203001761F4880691E49496A88421AD8D8
:102B100006201B4920390873FEF70AFEFEF7D0FD98
:102B20000121174801710021C17100200090154852
:102B3000406B1749096908430346C8220021012058
:102B400000F0FCFB89E60F482030007E022827DBDE
:102B500007200B4920390873012109480171C1710F
:102B6000002000900748406B094909690843034663
:102B700019220021042000F0E1FB6EE6FC00002099
:102B8000A4000020C0000020B4000020020D0000BE
:102B900008010020100A00205E100000000800500C
:102BA0005021EF4801720020ED4920390875ED48A9
:102BB0000078012835D108468078002817D00020F9
:102BC0008870C8200873002088734873C873012078
:102BD0000870082105200007FFF7B2FB0020E0493C
:102BE000203948700221E048FFF7B4FB36E00120AD
:102BF000DB4920398870002008738873C820487327
:102C00000020C8730870082105200007FFF7A2FB09
:102C10000120D349203948700221D348FFF790FBA7
:102C20001CE0D0480078022818D1C820CC492039AF
:102C3000087300208873C82048730020C8730120DF
:102C40000870082105200007FFF77AFB0120C4491E
:102C5000203948700221C448FFF772FB0221C348A3
:102C6000817105200007FFF76BFB4021052000075D
:102C7000FFF770FB00F03EFBBD48C078022108431F
:102C8000BB49C870BA48C0780221084000287DD0EE
:102C9000B348007A002816D10820B44920390873B7
:102CA0000121B2480171C17100200090AC48203868
:102CB000406BB049096908430346192200210A20E4
:102CC00000F03CFBC9E5A64820380078002836D043
:102CD000A3482038807C002831D00220FEF75CFC1D
:102CE0009F49203988610846807C002827D0084603
:102CF0008069FF21F531884221D3994820388069C5
:102D00009D4988421BD20620984920390873FEF756
:102D10000FFDFEF7D5FC0121944801710021C1711E
:102D2000002000908E482038406B92490969084382
:102D30000346C8220021012000F000FB8DE58848F1
:102D400020384078002838D085482038C07C0028BA
:102D500033D00520FEF720FC8149203988610846E0
:102D6000C07C002829D008468069FF21F5318842BF
:102D700023D97B48203880697F4988421DD20620AC
:102D80007A4920390873FEF7D3FC00E0D8E0FEF75B
:102D900097FC0121754801710021C171002000904C
:102DA0006F482038406B7349096908430346C822BD
:102DB0000021012000F0C2FA4FE569482038007C6C
:102DC00001285BD10020664920390874FDF760FDB9
:102DD000684800686949884206D861482038007D03
:102DE000401C5F49203908755D482038007D032864
:102DF0001ADB04205D492039087301215B48017109
:102E0000C171FEF75DFCFEF793FC00200090544872
:102E10002038406B57490969084303460F220021B7
:102E2000142000F08BFA18E5FEF7DAFC4C4A203A41
:102E3000D169D26AC8235A431046FDF759F9484967
:102E40002039886008468068C82802D3C8200873E3
:102E500014E0434820388068322804D832204049A2
:102E6000203908730AE03E492039896849430846F9
:102E7000C821FDF73DF93A49203908733848203810
:102E8000407C01286AD10020354920394874FDF77B
:102E9000FFFC384800683949884206D83048203855
:102EA000007D401C2E49203908752D482038007DB2
:102EB00003281ADB04202D492039087301212B48EF
:102EC0000171C171FEF7FCFBFEF732FC002000909F
:102ED00023482038406B27490969084303460F22DD
:102EE0000021142000F02AFAB7E4FEF779FC1C4A0E
:102EF000203A116AD26AC8235A431046FDF7F8F8FF
:102F000017492039886008468068C82802D3C8203D
:102F1000087323E0124820388068322804D8322011
:102F20000F492039087319E00D4920398968494350
:102F30000846C821FDF7DCF80949203948730DE03F
:102F40000020074920390870487008210520000733
:102F5000FFF700FA02210448FFF7FCF900BF7CE408
:102F6000E00000203000002000080050A4000020F5
:102F7000FC00002008010020E40C0000360B0000DB
:102F800008B51448C07802210840002820D0FDF779
:102F9000A3FC11201049087348691621FDF7A8F811
:102FA0000D48416100200C49086100210A48203089
:102FB0000171C171002000900848406B08490969FF
:102FC00008430346FF222D320021012000F0B6F90C
:102FD00008BD0000FC00002084000020C00000208C
:102FE000080100207047000008B502219348FFF750
:102FF0008FF9002806D092480078012108439049B3
:10300000087005E08E480078FE2108408C49087061
:10301000FEF746FC8B48406AAF218900884206D300
:1030200087480078042108438549087005E08448F2
:103030000078FB2108408249087081480078804967
:10304000497888427ED07E488078032805DA7C481B
:103050008078401C7A498870EFE079480078C00792
:10306000C00F00280BD076484078C007C00F00285A
:1030700005D17348C078012108437149C870704870
:103080000078C007C00F00281AD16D484078C007EB
:10309000C00F002814D06A48C078FE210840684953
:1030A000C87069484069162804D20121664820305A
:1030B000817203E00021644820308172FFF760FFD5
:1030C0005F4800780421084000284FD05C484078D1
:1030D000084000284AD1402005210907886200BF26
:1030E00002205A4908710846C078002810D11920DA
:1030F000554908730021544820300171C1710020E6
:10310000431EC82201460090012000F017F90FE08D
:103110004D48007B06280BD04948C0780221084062
:10312000002805D1034602460146009000F006F94A
:103130004548007B06280CD04148C0780221084051
:10314000002800E076E004D100F038F90020FFF715
:1031500041FA01203D49C87001213A4820300175EB
:103160003748C078042108433549C870344800788E
:1031700004210840002835D1314840780840002813
:1031800030D02F48C078FB2108402D49C87000205E
:103190002C49886200212B4820300175017341734E
:1031A00002202A490871274820300078002815D1CC
:1031B0000D20254908730021234820300171C17179
:1031C000002000902148406B1E49096908430346CE
:1031D000FF22F5320021012000F0B0F8002119484B
:1031E000203001701648007808210840002809D0D6
:1031F000134840780840002804D11148C07808439B
:103200000F49C8700E4800780821084000280AD1EC
:103210000B4840780840002805D00948C078F721BD
:1032200008400749C87000200549887008460078A2
:10323000487002E000200249887008BD0004005078
:10324000FC0000200801002084000020C0000020B5
:1032500010B502210748FFF75BF8002805D00648A3
:1032600000780121084304490870034800780249A6
:10327000487010BD00040050FC00002070470000A2
:10328000FFB581B005460E461F46002F04D07000E2
:1032900031180A98814201DD05B0F0BD00201149C6
:1032A00008700398410040180F4908700F480760E4
:1032B0002C4609E0600020180C4A1268811820464C
:1032C00000F0B4FE601CC4B2A819A042F2DC0B9856
:1032D000002805D000200649087001200149087027
:1032E00000BFD9E756000020580000205C000020F5
:1032F00055000020034804490860C04303490860A2
:1033000070470000AAAA5555300A0020400A002044
:103310001C2800DD704741004118054A117000214A
:10332000044A11700121044A117000BFF2E7000045
:10333000580000205500002056000020F8B5044633
:103340000D4616461F46022105200007FEF7F6FF30
:10335000402105200007FEF7F1FFFEF7B1F900203C
:103360001249087048701248C078FE210840104980
:10337000C8700846C078FD2108400D49C870082172
:1033800005200007FEF7E4FF02210A48FEF7E0FFF0
:1033900000200949886108464473C5610662476098
:1033A00006988860FDF798FAF8BD0000C00000207C
:1033B000FC0000200008005084000020002001498B
:1033C000087070476300002006480068064988427C
:1033D00004D006480068C943884201D101207047E3
:1033E0000020FCE7300A0020AAAA5555400A002018
:1033F00010B52D48407B002819D12C48C0780221F7
:103400000840002813D12948C0780421084000282A
:1034100008D02748007B002809D025482038006BB9
:10342000002804D122482038007D002803D01E2027
:103430002049087036E01F480078002832D11D4826
:10344000C079002804D000201A49C871FEF7E8F9B5
:10345000002115482030417100201749087048703C
:10346000082105200007FEF777FF02211348FEF729
:1034700073FF00F051FFFEF7FDFA0120FEF718FE82
:103480000220FEF715FE2020FEF712FE0120FEF7B7
:10349000FFFD0220FEF7FCFD2020FEF7F9FD1E20B7
:1034A0000449087010BD000084000020FC000020CA
:1034B00028010020B4000020C000002000080050B7
:1034C00000B58BB0182105A8FCF753FEFC20059031
:1034D0000020069003200790002008900220099009
:1034E00005A9A348FEF78EFEFC21A148FEF72AFF9E
:1034F000082105200007FEF72FFF02219C48FEF758
:103500002BFF022105200007FEF726FF00221021D5
:1035100005200007FEF749FF0222102105200007C1
:10352000FEF775FF002201219148FEF73EFF0222BF
:1035300001218F48FEF76BFF0122022105200007C1
:10354000FEF733FF0022022105200007FEF74AFFA5
:103550000322022105200007FEF773FF0121052049
:103560000007FEF7EFFE0122114605200007FEF7D7
:103570001CFF0022012105200007FEF733FF032274
:10358000012105200007FEF75CFF04217948FEF7C2
:10359000D9FE012204217748FEF707FF002204210B
:1035A0007448FEF71FFF08217248FEF7CBFE012288
:1035B00008217048FEF7F9FE002208216D48FEF749
:1035C00011FF10216B48FEF7BDFE01221021694852
:1035D000FEF7EBFE002210216648FEF703FF2021D4
:1035E0006448FEF7AFFE012220216248FEF7DDFEAF
:1035F000002220215F48FEF7F5FE002202215D48EF
:10360000FEF7D3FE022211465A48FEF700FF0022C1
:10361000802105200007FEF7C8FE0022802105203A
:103620000007FEF7F4FE0022202105200007FEF728
:10363000BCFE0122202105200007FEF7E8FE002243
:10364000402105200007FEF7B0FE002240210520A2
:103650000007FEF7DCFE002201214648FEF7A5FE2A
:10366000002201214348FEF7D2FE0022802141487A
:10367000FEF79BFE012280213E48FEF7C8FE012294
:10368000082105200007FEF790FE032208210520EF
:103690000007FEF7D6FE0022082105200007FEF7EE
:1036A000A1FE012202213248FEF77FFE0322022101
:1036B0002F48FEF7C6FE002202212D48FEF792FE9B
:1036C0000022042105200007FEF7A1FE0022402170
:1036D0002848FEF79CFE00200390049002200390EF
:1036E00001216846017441740321817403A8FEF727
:1036F00007FD6121C9020120FEF76EFD00210520B2
:10370000FFF700F80520FEF7B7FF002001900290B8
:1037100020200190012168460172417203218172CB
:1037200001A8FEF7EDFC14490020FEF755FD00212D
:103730000720FEF7E7FF0720FEF79EFF012001901C
:1037400001216846017241720321817201A8FEF7CE
:10375000D7FC032109040120FEF73EFD00210520CE
:10376000FEF7D0FF0520FEF787FF0BB000BD00007D
:1037700000080050000400500108010000B50022BC
:103780001548007D002823D114480078012819DB52
:103790001348C07804210840002801D0462200E0E8
:1037A00000220D4801680D480078401E80000D4B36
:1037B0001858801881420BD808480078401E0749E5
:1037C000087005E0012004490873002003490870CF
:1037D000FDF776FF00BD000008010020100A002060
:1037E000FC0000206C56000810B5FEF751F8174990
:1037F0000860084600681649884206D30220154929
:1038000008700020144908721BE010480068642802
:1038100006D801200F49087000200F49087210E0F7
:103820000A4800687D21C90088420AD30748006819
:103830000A49884205D80020064908700120064937
:103840000872044800780349487010BD3C0000200D
:10385000E40C000030000020B4000020B80B000091
:1038600008B54C48C0780221084000280BD0002041
:103870004949087049490860494908704948007831
:103880004849487008BD44480078401CC0B24249CD
:1038900008700A287CDB00200870FDF7F9FF424918
:1038A0000860084600684149884203D302203D4928
:1038B000087015E03C480068642803D801203949A5
:1038C00008700DE0384800687D21C900884207D3A0
:1038D000354800683649884202D8002031490870CE
:1038E000304800782F49497888424ED02C480078DB
:1038F000401C2B49087008460078032848DB2948FB
:103900000078002812D101202A4908722A48407AFA
:10391000022803D10021284841721CE02648407A41
:10392000032818D101212448417214E01D48007871
:10393000012806D100201F49087202211E48417249
:1039400009E018480078022805D1002019490872BA
:1039500003211948417213201749203908730021A7
:1039600015480171C171002000901448406B144942
:10397000096908430346042200212C20FFF7DEFCDE
:10398000084800780749487002E0002004490870A0
:1039900000BF77E7FC000020330000203400002047
:1039A00032000020300000203C000020E40C000029
:1039B000B80B0000B4000020A4000020C0000020CC
:1039C000080100207047000010B50D484068000C49
:1039D00000040C49096808430949486008464068E2
:1039E00009490840074940318988090408430449C6
:1039F0004860C803054988606420FDF759FD10BD83
:103A0000001002400001FF1FFFFF00FE00ED00E07C
:103A100010B5FE480069C007C00F002874D0FB48ED
:103A2000FEF7B6FD0028F9D000BF0120C043F749DA
:103A3000086100BFF6480078401CF5490870F54859
:103A40000078002849D0F348007B00280FD1F248C5
:103A5000C078FD210840F049C8700020ED49887306
:103A60008874082105200007FEF76EFC35E0E94860
:103A7000807BC82805DAE748807B401CE5498873CD
:103A800002E00020E3498873E248807BE149097B3A
:103A9000884205DA082105200007FEF74BFC04E008
:103AA000082105200007FEF74FFCDA48807B082834
:103AB00002D10120D7490874D648807B012809DD4E
:103AC000D448817B007B401E814203DA0120D1492A
:103AD000887402E00020CF498874CE4840780028DE
:103AE00047D0CC48407B00280FD1CB48C078FD217F
:103AF0000840C949C8700020C649C873C87402216B
:103B0000C648FEF721FC34E0A8E0C248C07BC828C4
:103B100005DAC048C07B401CBE49C87302E00020E3
:103B2000BC49C873BB48C07BBA49497B884204DAA8
:103B30000221BA48FEF7FEFB03E00221B748FEF778
:103B400003FCB448C07B082802D10120B149487465
:103B5000B048C07B012809DDAE48C17B407B401ED8
:103B6000814203DA0120AB49C87402E00020A94970
:103B7000C874AB4840780A2805DAA9484078401C48
:103B8000A749487035E00120A549487008710846EA
:103B900080780A2804DA08468078401C887028E07B
:103BA00001209F49887048710846C0780A2804DAC5
:103BB0000846C078401CC8701BE001209849C870B6
:103BC0008871FDF78BFD93482030007A002807D0DC
:103BD00090482030007A401EC1B28E4820300172D9
:103BE0008F480078002804D08D480078401E8C490A
:103BF00008708C488078401C8A4988700846807814
:103C000001282BDB00208870002204218648FEF763
:103C1000A5FB04218448FEF78DFB00220821824881
:103C2000FEF79CFB08218048FEF784FB0022102150
:103C30007D48FEF793FB10217B48FEF77BFB0022BB
:103C400020217948FEF78AFB20217748FEF772FB96
:103C500074480078002802D172494870C9E171485F
:103C60004078002806D001286AD002287ED0032898
:103C700065D146E16B480079C007C00F00281BD012
:103C800004216948FEF756FB012204216648FEF72D
:103C900065FB002204216448FEF794FB082162487A
:103CA000FEF752FB012208215F48FEF757FB002276
:103CB00008215D48FEF786FB5A484068022108400B
:103CC00000281BD004215848FEF734FB01220421B0
:103CD0005548FEF743FB002204215348FEF772FBD0
:103CE00010215148FEF730FB012210214E48FEF70B
:103CF00035FB002210214C48FEF764FB4948406820
:103D00000421084000281AD04748FEF713FB01227F
:103D100004214548FEF722FB002204214248FEF719
:103D200051FB20214048FEF70FFB012220213E4895
:103D3000FEF714FB002220213B48FEF743FB4AE13B
:103D4000384840680821084000281CD03648FEF753
:103D5000F1FA012208213448FEF700FB0022082175
:103D60003148FEF72FFB04212F4800E061E0FEF709
:103D7000EBFA012204212C48FEF7F0FA002204217C
:103D80002948FEF71FFB27484068102108400028FB
:103D90001BD008212448FEF7CDFA01220821224831
:103DA000FEF7DCFA002208211F48FEF70BFB10216A
:103DB0001D48FEF7C9FA012210211B48FEF7CEFA72
:103DC000002210211848FEF7FDFA1648406820210D
:103DD000084000282CD008211348FEF7ABFA012236
:103DE00008211148FEF7BAFA002208210E48FEF712
:103DF000E9FA20210C48FEF7A7FA012220210A48FF
:103E0000FEF7ACFA0022202107480FE00020004016
:103E10000D000020C0000020FC0000200008005021
:103E2000B40000208400002000040050FEF7CAFA0D
:103E3000D1E0704840684021084000281BD0102184
:103E40006D48FEF777FA012210216B48FEF786FADB
:103E5000002210216848FEF7B5FA04216648FEF7F3
:103E600073FA012204216448FEF778FA0022042143
:103E70006148FEF7A7FA5F484068802108400028A3
:103E80001BD010215C48FEF755FA012210215A4838
:103E9000FEF764FA002210215748FEF793FA082132
:103EA0005548FEF751FA012208215348FEF756FA09
:103EB000002208215048FEF785FA4E484068FF214D
:103EC0000131084000281BD010214B48FEF732FA80
:103ED000012210214848FEF741FA002210214648ED
:103EE000FEF770FA20214448FEF72EFA0122202125
:103EF0004148FEF733FA002220213F48FEF762FADC
:103F000069E03C48406801214902084000281BD074
:103F100020213948FEF70EFA012220213648FEF70B
:103F20001DFA002220213448FEF74CFA04213248C1
:103F3000FEF70AFA012204212F48FEF70FFA0022A9
:103F400004212D48FEF73EFA2A48406801218902E3
:103F5000084000281BD020212748FEF7EBF901225A
:103F600020212548FEF7FAF9002220212248FEF7F9
:103F700029FA08212048FEF7E7F9012208211E4806
:103F8000FEF7ECF9002208211B48FEF71BFA19483E
:103F900040680121C902084000281BD02021164892
:103FA000FEF7C8F9012220211348FEF7D7F90022B5
:103FB00020211148FEF706FA10210F48FEF7C4F938
:103FC000012210210C48FEF7C9F9002210210A48ED
:103FD000FEF7F8F900BF00BF06484078042805DA6C
:103FE00004484078401C0349487002E00020014921
:103FF000487010BD840000200004005010B50A482D
:104000000069C007C00F00280CD00748FEF7C0FAAF
:10401000002807D000BF0120C0430349086100BF4A
:10402000FDF780FF10BD0000002C014030B50246B6
:104030001C2A00DB30BD5300D318D8B20B78054CD6
:1040400023544C78034D431CEC548C78831CEC5463
:1040500000BFEFE7940100202021020C01D01021C5
:104060001046020A01D010460839020901D0104654
:10407000091F820801D01046891E420801D0881EFF
:104080007047081A704730B47446641E2578641C63
:10409000AB4204D3635D5B00E31830BC18471D4698
:1040A000F8E702E008C8121F08C1002AFAD17047D9
:1040B0007047002001E001C1121F002AFBD17047A8
:1040C00010B504462300FFF7DEFF0A06101B263159
:1040D0003C46505A5F6F032202213548FEF74BF9E8
:1040E00001213448FDF796FF5FE0032208210520F7
:1040F0000007FEF740F930492E48FDF78BFF54E0EA
:104100000322102105200007FEF735F92B49294825
:10411000FDF780FF49E00322402105200007FEF75C
:104120002AF927492348FDF775FF3EE00322802145
:1041300005200007FEF71FF922491E48FDF76AFF18
:1041400033E0032201212048FEF715F91F491948E1
:10415000FDF760FF29E0032240211548FEF70BF927
:104160001B491448FDF756FF1FE0032201211048A8
:10417000FEF701F917490F48FDF74CFF15E0164906
:104180000C48FDF747FF10E014490A48FDF742FFCD
:1041900001208005124909680322920591430143D9
:1041A0000F4A116000BF00E000BF00BF10BD00005B
:1041B0000004005000240140020000040400000834
:1041C0000800000C1000001000080050200000142F
:1041D000400000188000001C000100A0000200A4A4
:1041E0000827014000BF0448806804490840801C3B
:1041F0000149886000BF704700240140E8FFFF7F4D
:1042000000B500BF0548806805490840401C0349C7
:10421000886000BF082000F071F800BD0024014054
:10422000E8FFFF7F00B58BB03148006B0121090525
:1042300008432F4908630846006B0121090588439C
:104240002B490863012000052949403109680143D1
:10425000274A40321160114609680140019100BFB0
:1042600000BF00200790089009900A9003900490E6
:1042700005900690029090050790002009900A9002
:10428000089007A91B48FDF77BFE072019494969DB
:1042900081430143174A516100BF002005909014EB
:1042A000069000200490039003A91046FDF796FEA7
:1042B00000BF10488068C007C00F01214840484037
:1042C000002813D100BF0B4880680B49084009073C
:1042D00040180849886000BF00BF00BF05488068DB
:1042E000C00F0028F9D10120FEF75AF90BB000BD2C
:1042F0000010024000240140E8FFFF7F002108E099
:10430000002202E000BF531C9AB2202AFADB4B1CA9
:1043100099B28142F4DB704710B58F48FEF7E4F89C
:104320008E48FEF7E1F88C48FEF7DAF88A48FEF787
:10433000E0F88A48FEF7D4F88848FEF7DAF801205A
:10434000C002FDF773FE0120C003FDF76FFEFDF70D
:10435000A7FA8348406AAF218900884203D301202D
:104360008049087002E000207E490870FFF73AFF9C
:1043700000BF7D487D49086000BFFFF7A1F802211A
:104380007B48FDF7CEFF002803D001207949087053
:1043900002E0002077490870202105200007FDF782
:1043A000C0FF002803D001207349087002E00020FC
:1043B0007149087001216E48FDF7B3FF002803D052
:1043C00001206E49087002E000206C49087000BFAF
:1043D000FFF708FF00F0A8FF694800690221884341
:1043E0006749086101208003664909680322920336
:1043F00091430143634A116000BF012011460968DF
:1044000042049143420411435E4A116000BF00BF61
:104410005D480069042108435B49086100BF40BF53
:1044200020BF20BF00BF08460069042188435649C9
:10443000086100BF524800690221084350490861E1
:1044400000BF49484949086000BF02214848FDF7BC
:1044500068FF002803D001204C49087002E00020CA
:104460004A490870202105200007FDF75AFF00285F
:1044700003D001204649087002E00020444908703A
:1044800001213B48FDF74DFF002803D001204149A1
:10449000087002E000203F490870FCF7F9F9FDF7C9
:1044A000FFF92F48406AAF218900884203D30120D9
:1044B0003949087002E0002037490870294800781F
:1044C0003549097888421BD12A4800782F49097854
:1044D000884215D1284800782D49097888420FD1A3
:1044E000264800782B490978884209D11C48203099
:1044F000007B002813D01A480068284988420ED251
:1045000017482030007B00280AD01548006823494E
:10451000884205D2002112482030017300E057E79D
:104520000120C002FDF798FD0120C003FDF794FDB6
:104530000948FDF7D5FF0848FDF7EFFF0748FDF7ED
:10454000CFFF0648FDF7E9FF0348FDF7DCFF03480E
:10455000FDF7D9FF10BD0000002C014000200040F5
:104560000801002028000020AAAA00000030004016
:104570000004005026000020270000202900002011
:1045800000E000E00070004000ED00E02A000020A4
:104590002B0000202D0000202C000020D20F000056
:1045A00000BF1948006A012108431749086200BF8B
:1045B00000BF00BF1448006A0221084040080028DC
:1045C000F7D000BF11481249086000BF00BF114872
:1045D000086000BF0320486000BF0F48886000BF2C
:1045E00000BF00BF0A48C0688007800F002801D1C3
:1045F000012000E000200028F3D000BF0748044954
:10460000086000BF7047000040100240CCCC0000A2
:104610000030004055550000B80B0000AAAA000069
:1046200010B5F74B1A70587099709B78802423400E
:10463000002B1DD0012305242407A36100BF00BF68
:1046400000BF00BF00BF00BF00BF00BF00BF00BF72
:1046500000BF00BF00BF00BF00BF00BF00BF00BF62
:10466000012305242407A36200BF00BF00BF1CE094
:10467000012305242407A36100BF00BF00BF01235D
:1046800005242407A36200BF00BF00BF00BF00BF16
:1046900000BF00BF00BF00BF00BF00BF00BF00BF22
:1046A00000BF00BF00BF00BF00BFD54B9B784024B8
:1046B0002340002B1DD0012305242407A36100BF44
:1046C00000BF00BF00BF00BF00BF00BF00BF00BFF2
:1046D00000BF00BF00BF00BF00BF00BF00BF00BFE2
:1046E00000BF012305242407A36200BF00BF00BF51
:1046F0001CE0012305242407A36100BF00BF00BF05
:10470000012305242407A36200BF00BF00BF00BF30
:1047100000BF00BF00BF00BF00BF00BF00BF00BFA1
:1047200000BF00BF00BF00BF00BF00BFB44B9B78FD
:1047300020242340002B1DD0012305242407A3613E
:1047400000BF00BF00BF00BF00BF00BF00BF00BF71
:1047500000BF00BF00BF00BF00BF00BF00BF00BF61
:1047600000BF00BF012305242407A36200BF00BFD0
:1047700000BF1CE0012305242407A36100BF00BF84
:1047800000BF012305242407A36200BF00BF00BFB0
:1047900000BF00BF00BF00BF00BF00BF00BF00BF21
:1047A00000BF00BF00BF00BF00BF00BF00BF944BF1
:1047B0009B7810242340002B1DD0012305242407BF
:1047C000A36100BF00BF00BF00BF00BF00BF00BFAC
:1047D00000BF00BF00BF00BF00BF00BF00BF00BFE1
:1047E00000BF00BF00BF012305242407A36200BF50
:1047F00000BF00BF1CE0012305242407A36100BF04
:1048000000BF00BF012305242407A36200BF00BF2F
:1048100000BF00BF00BF00BF00BF00BF00BF00BFA0
:1048200000BF00BF00BF00BF00BF00BF00BF00BF90
:10483000734B9B7808242340002B1DD001230524B3
:104840002407A36100BF00BF00BF00BF00BF00BFBF
:1048500000BF00BF00BF00BF00BF00BF00BF00BF60
:1048600000BF00BF00BF00BF012305242407A362CF
:1048700000BF00BF00BF1CE0012305242407A36183
:1048800000BF00BF00BF012305242407A36200BFAF
:1048900000BF00BF00BF00BF00BF00BF00BF00BF20
:1048A00000BF00BF00BF00BF00BF00BF00BF00BF10
:1048B00000BF534B9B7804242340002B1DD00123C1
:1048C00005242407A36100BF00BF00BF00BF00BFD5
:1048D00000BF00BF00BF00BF00BF00BF00BF00BFE0
:1048E00000BF00BF00BF00BF00BF01230524240795
:1048F000A36200BF00BF00BF1CE001230524240702
:10490000A36100BF00BF00BF012305242407A362E9
:1049100000BF00BF00BF00BF00BF00BF00BF00BF9F
:1049200000BF00BF00BF00BF00BF00BF00BF00BF8F
:1049300000BF00BF324B9B7802242340002B1DD0C8
:10494000012305242407A36100BF00BF00BF00BFEF
:1049500000BF00BF00BF00BF00BF00BF00BF00BF5F
:1049600000BF00BF00BF00BF00BF00BF0123052480
:104970002407A36200BF00BF00BF1CE00123052481
:104980002407A36100BF00BF00BF01230524240743
:10499000A36200BF00BF00BF00BF00BF00BF00BFD9
:1049A00000BF00BF00BF00BF00BF00BF00BF00BF0F
:1049B00000BF00BF00BF124B9B78DB07DB0F002B53
:1049C00020D0012305242407A36100BF00BF00BF3E
:1049D00000BF00BF00BF00BF00BF00BF00BF00BFDF
:1049E00000BF00BF00BF00BF00BF00BF00BF01236A
:1049F00005242407A36200BF00BF00BF1FE0000022
:104A000060000020012305242407A36100BF00BF2C
:104A100000BF012305242407A36200BF00BF00BF1D
:104A200000BF00BF00BF00BF00BF00BF00BF00BF8E
:104A300000BF00BF00BF00BF00BF00BF00BFFE4BF4
:104A40005B7880242340002B1DD0012305242407FC
:104A5000A36100BF00BF00BF00BF00BF00BF00BF19
:104A600000BF00BF00BF00BF00BF00BF00BF00BF4E
:104A700000BF00BF00BF012305242407A36200BFBD
:104A800000BF00BF1CE0012305242407A36100BF71
:104A900000BF00BF012305242407A36200BF00BF9D
:104AA00000BF00BF00BF00BF00BF00BF00BF00BF0E
:104AB00000BF00BF00BF00BF00BF00BF00BF00BFFE
:104AC000DD4B5B7840242340002B1DD001230524BF
:104AD0002407A36100BF00BF00BF00BF00BF00BF2D
:104AE00000BF00BF00BF00BF00BF00BF00BF00BFCE
:104AF00000BF00BF00BF00BF012305242407A3623D
:104B000000BF00BF00BF1CE0012305242407A361F0
:104B100000BF00BF00BF012305242407A36200BF1C
:104B200000BF00BF00BF00BF00BF00BF00BF00BF8D
:104B300000BF00BF00BF00BF00BF00BF00BF00BF7D
:104B400000BFBD4B5B7820242340002B1DD00123E8
:104B500005242407A36100BF00BF00BF00BF00BF42
:104B600000BF00BF00BF00BF00BF00BF00BF00BF4D
:104B700000BF00BF00BF00BF00BF01230524240702
:104B8000A36200BF00BF00BF1CE00123052424076F
:104B9000A36100BF00BF00BF012305242407A36257
:104BA00000BF00BF00BF00BF00BF00BF00BF00BF0D
:104BB00000BF00BF00BF00BF00BF00BF00BF00BFFD
:104BC00000BF00BF9C4B5B7810242340002B1DD0FE
:104BD000012305242407A36100BF00BF00BF00BF5D
:104BE00000BF00BF00BF00BF00BF00BF00BF00BFCD
:104BF00000BF00BF00BF00BF00BF00BF01230524EE
:104C00002407A36200BF00BF00BF1CE001230524EE
:104C10002407A36100BF00BF00BF012305242407B0
:104C2000A36200BF00BF00BF00BF00BF00BF00BF46
:104C300000BF00BF00BF00BF00BF00BF00BF00BF7C
:104C400000BF00BF00BF7C4B5B7808242340002BD3
:104C50001DD0012305242407A36100BF00BF00BFAE
:104C600000BF00BF00BF00BF00BF00BF00BF00BF4C
:104C700000BF00BF00BF00BF00BF00BF00BF0123D7
:104C800005242407A36200BF00BF00BF1CE001236E
:104C900005242407A36100BF00BF00BF0123052432
:104CA0002407A36200BF00BF00BF00BF00BF00BF5A
:104CB00000BF00BF00BF00BF00BF00BF00BF00BFFC
:104CC00000BF00BF00BF00BF5B4B5B7804242340E4
:104CD000002B1DD0012305242407A36100BF00BFC2
:104CE00000BF00BF00BF00BF00BF00BF00BF00BFCC
:104CF00000BF00BF00BF00BF00BF00BF00BF00BFBC
:104D0000012305242407A36200BF00BF00BF1CE0ED
:104D1000012305242407A36100BF00BF00BF0123B6
:104D200005242407A36200BF00BF00BF00BF00BF6F
:104D300000BF00BF00BF00BF00BF00BF00BF00BF7B
:104D400000BF00BF00BF00BF00BF3B4B5B78022429
:104D50002340002B1DD0012305242407A36100BF9D
:104D600000BF00BF00BF00BF00BF00BF00BF00BF4B
:104D700000BF00BF00BF00BF00BF00BF00BF00BF3B
:104D800000BF012305242407A36200BF00BF00BFAA
:104D90001CE0012305242407A36100BF00BF00BF5E
:104DA000012305242407A36200BF00BF00BF00BF8A
:104DB00000BF00BF00BF00BF00BF00BF00BF00BFFB
:104DC00000BF00BF00BF00BF00BF00BF1A4B5B7831
:104DD000DB07DB0F002B1DD0012305242407A36173
:104DE00000BF00BF00BF00BF00BF00BF00BF00BFCB
:104DF00000BF00BF00BF00BF00BF00BF00BF00BFBB
:104E000000BF00BF012305242407A36200BF00BF29
:104E100000BF1FE0012305242407A36100BF00BFDA
:104E200000BF012305242407A36200BF00BF00BF09
:104E300000BF00BF00BF01E06000002000BF00BF56
:104E400000BF00BF00BF00BF00BF00BF00BF00BF6A
:104E500000BF00BFFE4B1B7880242340002B1DD0D9
:104E6000012305242407A36100BF00BF00BF00BFCA
:104E700000BF00BF00BF00BF00BF00BF00BF00BF3A
:104E800000BF00BF00BF00BF00BF00BF012305245B
:104E90002407A36200BF00BF00BF1CE0012305245C
:104EA0002407A36100BF00BF00BF0123052424071E
:104EB000A36200BF00BF00BF00BF00BF00BF00BFB4
:104EC00000BF00BF00BF00BF00BF00BF00BF00BFEA
:104ED00000BF00BF00BFDE4B1B7840242340002BE7
:104EE0001DD0012305242407A36100BF00BF00BF1C
:104EF00000BF00BF00BF00BF00BF00BF00BF00BFBA
:104F000000BF00BF00BF00BF00BF00BF00BF012344
:104F100005242407A36200BF00BF00BF1CE00123DB
:104F200005242407A36100BF00BF00BF012305249F
:104F30002407A36200BF00BF00BF00BF00BF00BFC7
:104F400000BF00BF00BF00BF00BF00BF00BF00BF69
:104F500000BF00BF00BF00BFBD4B1B782024234013
:104F6000002B1DD0012305242407A36100BF00BF2F
:104F700000BF00BF00BF00BF00BF00BF00BF00BF39
:104F800000BF00BF00BF00BF00BF00BF00BF00BF29
:104F9000012305242407A36200BF00BF00BF1CE05B
:104FA000012305242407A36100BF00BF00BF012324
:104FB00005242407A36200BF00BF00BF00BF00BFDD
:104FC00000BF00BF00BF00BF00BF00BF00BF00BFE9
:104FD00000BF00BF00BF00BF00BF9D4B1B78102467
:104FE0002340002B1DD0012305242407A36100BF0B
:104FF00000BF00BF00BF00BF00BF00BF00BF00BFB9
:1050000000BF00BF00BF00BF00BF00BF00BF00BFA8
:1050100000BF012305242407A36200BF00BF00BF17
:105020001CE0012305242407A36100BF00BF00BFCB
:10503000012305242407A36200BF00BF00BF00BFF7
:1050400000BF00BF00BF00BF00BF00BF00BF00BF68
:1050500000BF00BF00BF00BF00BF00BF7C4B1B787C
:1050600008242340002B1DD0012305242407A3611D
:1050700000BF00BF00BF00BF00BF00BF00BF00BF38
:1050800000BF00BF00BF00BF00BF00BF00BF00BF28
:1050900000BF00BF012305242407A36200BF00BF97
:1050A00000BF1CE0012305242407A36100BF00BF4B
:1050B00000BF012305242407A36200BF00BF00BF77
:1050C00000BF00BF00BF00BF00BF00BF00BF00BFE8
:1050D00000BF00BF00BF00BF00BF00BF00BF5C4BF0
:1050E0001B7804242340002B1DD001230524240712
:1050F000A36100BF00BF00BF00BF00BF00BF00BF73
:1051000000BF00BF00BF00BF00BF00BF00BF00BFA7
:1051100000BF00BF00BF012305242407A36200BF16
:1051200000BF00BF1CE0012305242407A36100BFCA
:1051300000BF00BF012305242407A36200BF00BFF6
:1051400000BF00BF00BF00BF00BF00BF00BF00BF67
:1051500000BF00BF00BF00BF00BF00BF00BF00BF57
:105160003B4B1B7802242340002B1DD00123052438
:105170002407A36100BF00BF00BF00BF00BF00BF86
:1051800000BF00BF00BF00BF00BF00BF00BF00BF27
:1051900000BF00BF00BF00BF012305242407A36296
:1051A00000BF00BF00BF1CE0012305242407A3614A
:1051B00000BF00BF00BF012305242407A36200BF76
:1051C00000BF00BF00BF00BF00BF00BF00BF00BFE7
:1051D00000BF00BF00BF00BF00BF00BF00BF00BFD7
:1051E00000BF1B4B1B78DB07DB0F002B1DD00123FF
:1051F00005242407A36100BF00BF00BF00BF00BF9C
:1052000000BF00BF00BF00BF00BF00BF00BF00BFA6
:1052100000BF00BF00BF00BF00BF0123052424075B
:10522000A36200BF00BF00BF1FE0012305242407C5
:10523000A36100BF00BF00BF012305242407A362B0
:1052400000BF00BF00BF00BF00BF00BF00BF01E044
:105250006000002000BF00BF00BF00BF00BF00BF54
:1052600000BF00BF00BF00BF00BF10BD3EB50020A3
:105270000190029001204007284909688143274A8C
:10528000116000BF00BF114649680143516000BF73
:1052900000BF2348006A012108432149086200BF7A
:1052A00000BF00BF1E48006A0221084040080028D5
:1052B000F7D048041A4C6469FF252D022C40214682
:1052C000174C64692C40A2080C4614432346144C26
:1052D00064690325AD04AC4305461D432C43104DC2
:1052E0006C6100BF40030E494039C96B01430C4A51
:1052F000403AD1631146C96B0140009100BF00BF25
:105300000720400201900020029001A90548FDF706
:10531000C7F8002801D0FBF7D8F93EBD801802403D
:1053200040100240007C004010B500BF1448806867
:10533000022108431249886000BF00BF0846006987
:10534000012108430E49086100BF48158969090C0D
:10535000090401430A4A916100BF0220114609690C
:10536000062291430143064A116100BF104640687E
:1053700002210843114648609620FEF7BFFF10BD8A
:10538000007C004008B5FBF7A3F900F0ADF8FCF78E
:1053900099FAFEF747FFFFF703F900F00DF900F067
:1053A000DBF8FFF763FFFFF7BFFF022045490969FC
:1053B0000140814201D1012100E00021002903D1F7
:1053C000FEF702F8002823D001203F49C8700020D2
:1053D0003E49087206203E490873FCF7A9F9FCF71C
:1053E0006FF901213A48203001710021C17100207C
:1053F00000903548406B3749096908430346C82285
:1054000000210120FDF79AFF1E20304908702AE094
:1054100001202F49087301212D48203001710021FE
:10542000C1710020431E9622014600900120FDF725
:1054300085FF01202549C871002027490860052003
:105440002649087000202149C8711F49C870087199
:105450001E490872FCF7E4F9FCF76AF91E201B49A3
:1054600008700020C871FEF7BFF9FDF7F1FEFBF7E9
:1054700033FA25E0FDF782F914480079002804D0BA
:10548000002012490871FEF7EBF910484079002816
:105490000BD000200D49487100BF11481149086028
:1054A00000BFFDF7A1FDFBF721FA0848807900282D
:1054B00006D0002005498871FCF7B0F8FDF798FF89
:1054C000D8E7000000040050C0000020B400002015
:1054D0008400002008010020000A0020200A00208B
:1054E000AAAA00000030004000B587B01948006A41
:1054F0000321490308400121890388420ED1154840
:10550000006A89110840884208D11248006A0721C0
:10551000490208400121C902884219D0182101A876
:10552000FAF727FEFCF7DCFCFCF7C0FC0820019032
:105530007F200002059059200002069001A8FCF788
:10554000A1FBFCF78DFBFCF79FFCFCF791FC00BF77
:1055500007B000BD0020024000B585B00120C003A7
:10556000FCF76CFD14216846FAF703FE0020039057
:10557000019017216846018063200290002168464F
:10558000017469460B48FCF7CDFF00BF0120C04302
:105590000849086100BF0846FCF7BAFF0548FCF758
:1055A000ADFF1320FDF75EF801211320FDF76EF823
:1055B00005B000BD0020004000B585B00120C0024C
:1055C000FCF73CFD14216846FAF7D3FD0020039058
:1055D0000190172168460180312002900021684621
:1055E000017469460F48FCF79DFF00BF0D48406CF1
:1055F0000121C90308430B49486400BF00BF0120D3
:10560000C043086100BF0846FCF782FF0548FCF76D
:1056100075FF0D20FDF726F800210D20FDF736F867
:1056200005B000BD002C01401C01FF1F1C01FF1F25
:105630001C01FF1F1C01FF1F1C01FF1F3001FF1F6A
:105640001C01FF1F1C01FF1F0000000004040400D8
:105650000008000000080000080000000800020424
:1056600006080A0C0001020304050600E40C000011
:10567000740E0000A60E0000EC0E0000780F000073
:105680001A0E0000EC0E0000280F0000500F000062
:10569000BE0F0000200000002100000023000000D9
:1056A000270000002F0000003F000000000800005D
:1056B00040080000C0080000C0090000C00B000046
:1056C000C00F0000000000000404040000080000F7
:1056D00000080000080000000800020406080A0C88
:1056E00000010203040506000000000000000000A5
:1056F00000000000000000000000000000000000AA
:105700000000000000000000000000000000000099
:105710000000000000000000000000000000000089
:1057200000000000000000000000FF0000FF00007B
:10573000FF0000FF0000FF0000FF0000000000006D
:105740000000000000000000000000000000000059
:105750000000000000000000000000000000000049
:105760000000000000000000000000000000000039
:1057700000000000000000000000000000FF170013
:10578000FF1700FF1700FF1700FF1700FF170000AB
:105790000000000000000000000000000000000009
:1057A00000000000000000000000000000000000F9
:1057B00000000000000000000000000000000000E9
:1057C00000000000000000000000000000000000D9
:1057D000000000FF0000FF0000FF0000FF0000FFCE
:1057E0000000FF0000FF0000FF00FFFF00FFFF00C0
:1057F000FFFF00FFFF00FFFF00FFFF00FF0000FFB3
:105800000000FF0000FF0000FF0000FF0000FF009D
:1058100000FF00FF1700FF1700FF1700FF1700FF32
:105820001700FF1700FF1700FF1700FFFF00FFFF23
:1058300000FFFF00FFFF00FFFF00FFFF0000FF0071
:1058400000FF0000FF0000FF0000FF0000FF00005D
:10585000FF0000FF00FF0000FF0000FF0000FF004E
:1058600000FF0000FF0000FF0000FF0000FF00003D
:10587000FF0000FF0000FF0000FF0000FF0000FF2E
:105880000000FF0000FF0000FF0000FF0000FF001D
:1058900000FF0000FF000000B858000800000020D2
:1058A0006C000000A2400008245900086C00002091
:1058B000BC060000B240000800366E010000000087
:1058C00000000002030000000000000000000000D3
:1058D00004000000010000000000000000000000C3
:1058E00000000000000000000000000000000000B8
:1058F0000A0000000000000000000000000000009E
:105900000000000000000000000000000000000097
:105910000000000000000000000000000000000087
:045920000000000083
:04000005080000C12E
:00000001FF
