:020000040800F2
:1000000018050020D9000008B51D00088917000850
:1000100000000000000000000000000000000000E0
:10002000000000000000000000000000952900080A
:1000300000000000000000003927000825300008FB
:10004000000000000000000000000000EB000008BD
:10005000EB000008750D0008990D0008BD0D0008A3
:100060000000000000000000000000000000000090
:10007000EB0000086D320008EB00000800000000F3
:1000800000000000EB0000080000000071300008D4
:100090000000000000000000000000000000000060
:1000A0000000000000000000000000000000000050
:1000B0000000000000000000000000000000000040
:1000C0000448854600F0E2FA004800477939000804
:1000D000C046C04618050020044880470448004731
:1000E000FEE7FEE7FEE7FEE7FEE7FEE72930000851
:1000F000C100000830B50B46014600202022012433
:1001000009E00D46D5409D4205D31D469540491B4B
:100110002546954040191546521E002DF1DC30BD94
:1001200070B500242546002801DA01244042002948
:1001300001DA01254942FFF7DDFFAC4200D0404221
:10014000002C00D0494270BDD2B201E00270401CC8
:10015000491EFBD270470022F6E710B513460A4647
:1001600004461946FFF7F0FF204610BD024670B561
:100170004A40D30FDB0740002DD04A002AD0010EA1
:10018000140E000212020919400A520A8418E501ED
:1001900004465443000A120A2E045043A41942197B
:1001A000200CC543AA18120C0125AD03521C52198C
:1001B00012047F39240400D0521C104301D44000A3
:1001C000491EC2B20C06C0092018401C4008802AF3
:1001D00002D003E0002070BD40084000002900DA92
:1001E0000020184370BD0000F0B50746084658408F
:1001F00087B0C00F049048000E46590040084908D7
:10020000BC1A884105D2384631461E4617460B4671
:1002100002465800400810434DD0300D0390400571
:100220005900400D490D0590401A0290402873DA9C
:1002300018030121000B090508430190049800925E
:10024000002806D01146019A4942002090410091B1
:100250000190029840210A1A0199009800F052F981
:1002600005460C466B4607CB00F05CF9C01971419E
:10027000039A0E0D0023D71756401A467A401643AC
:1002800044D0049A002A2DD0029A012A039A15DC40
:100290001205C01A914101263605001C7141D20F8A
:1002A000059ED2070093019202962A46234600F04B
:1002B0009AF907B0F0BD38463146FAE71605234AE9
:1002C0000F46B218C01AB74101210905001C4F4161
:1002D00000187F41114618187941E20F10436D193B
:1002E000644113E0E2076D0815436408C207144334
:1002F000039A01261205C01A91413605001C71416E
:10030000CE07400830434908C01851412A462346C9
:1003100000F05CF9CDE7FFE7049801224000C11727
:10032000121A00238B4104983146C417381AA14190
:10033000EEE730B40124E407634030BC54E730B446
:100340000124E407614030BC4EE700000000E0FFFC
:10035000F0B51FB488B00B9909980024484009995A
:10036000C00F490049080991C0070B990090490046
:1003700049080B9109990898A64608431CD00B9987
:100380000A98084318D0099801244000420D4800FB
:10039000410D099824050003000B204309900B9898
:1003A0000003000B20430B9050181C4940180022FA
:1003B00001901446104605E0002001460DB0F0BD46
:1003C000032801DA034600E003239C46C11A0AAE63
:1003D0000AE05F0008ADED5B4F00F75B7D4300274F
:1003E000AA187C41491C5B1E6145F2DD410004AB4B
:1003F0005A522104120C0A43240C401C0828DFDB4B
:10040000019802900099704601910090059B049A12
:100410000799069800F0E7F8D0E700000DFCFFFF11
:10042000C217C10F504010B54018CA0796230021CB
:1004300000F093F810BD00000EB5C217C10F504078
:10044000CA0740180021054B0293019200910A4609
:100450000B4600F0C8F803B000BD000033040000F4
:100460000EB505490291002100910A460B46019103
:1004700000F0B9F803B000BD3304000041004002B1
:100480000122400AD205090E80187F2901DA0020D6
:100490007047962903DC9622511AC8407047963956
:1004A00088407047C20FD207400040080BD0C10DF2
:1004B0000723DB01C91840020905400A1143C2089D
:1004C000400711437047002001467047CB0FDB0700
:1004D000490010B5490802460A4307D00A0D07240F
:1004E0000903E401090B121B002A01DC002010BDE6
:1004F000C900440F0C43C100E018D205801800F079
:1005000024F810BD10B5202A04DB0146203A9140A2
:10051000002010BD914020239C1A0346E34019435C
:10052000904010BD10B5202A06DBCB170846203AB4
:100530001041C1170B4306E00B461341D040202465
:10054000A21A91400843194610BD002904DA401C44
:10055000490001D140084000704770B40024050CE8
:1005600005D11024000402D1002921D01124050E48
:1005700001D100020834050F01D10001241D850FAF
:1005800001D18000A41C002801DB4000641C00296C
:1005900008D020252E1B0D46F540A14000D001219A
:1005A0002943084301061B1B000ADB1D02D500205E
:1005B00070BC7047DB05181880180029F8DA401C59
:1005C0004900F5D170BC40084000704710B5002BC1
:1005D00008DA0024401C614192185B411A4301D1A2
:1005E0004008400010BDF0B51FB482B005460C00B5
:1005F00003D0084602F050FE02E002F04DFE20302B
:100600000246009021462846FFF77CFF049B059A8E
:1006100004460F4618431143084314D018461043AC
:100620001BD0009840210A1A1846059900F040F89E
:1006300005460E46009A05990498FFF763FF0843A4
:1006400005D0012004E02046394607B0F0BD002067
:10065000C11705430E432C43374300990E98630599
:10066000401A7905E40A00220C43FD0A0A3002D53B
:1006700000200146E9E70105101969410C9C0D9D18
:1006800000196941FFF7A2FFDFE70000064C0125D2
:10069000064E05E0E36807CC2B430C3C984710342A
:1006A000B442F7D3FFF710FDB83C0008D83C00086F
:1006B00010B5202A04DB0846203AD040002110BDA6
:1006C0000B46D340D0402024A21A9140084319463B
:1006D00010BD00BFFEE7000008B5012030490968E1
:1006E00001432F4A1160114609680140009100BF83
:1006F00000BF00072A494039C96B0143284A403AE4
:10070000D1631146C96B0140009100BF00BF00BF1B
:1007100010460068911508431146086000BF00BFED
:1007200000BF1F4840380068012189020840800A44
:100730000028F5D000201A49403989680F2212029A
:1007400091430143164A403A916000BF00BF1146F1
:100750008968C908C9000143916000BF00BF00BF9C
:100760000F4840388068382108400028F7D100BF82
:100770000B49403989680722120391430143084A13
:10078000403A916000BF074801F066FA06480069E8
:100790000221084304490861024801F08BFA08BDB0
:1007A0004010024000366E0100E000E0F0B58DB070
:1007B0003049C87800F086F80B902E49887800F010
:1007C00081F80A900A210B98FFF7AAFC0446FFF76C
:1007D00027FE294908600A98FFF742FE0446274A87
:1007E000274BFFF7B5FD039102900A210B98FFF705
:1007F00097FC08460191FFF71FFE0446214A224B51
:10080000FFF7A6FD0646039B029AFFF7EDFC079152
:10081000069019480068FFF745FE05910490079B74
:10082000069AFFF7E1FC09910890FFF74FFE124985
:100830000860164910480068FFF798FC0E490860E8
:1008400008460068FFF71AFE11490880084600882C
:100850001049884205DB0E4800880E49C83188429D
:1008600003DD4B2000010A490880094800880DB0CB
:10087000F0BD00002000FF1F20000020FCA9F1D2E5
:100880004D62503F9A9999999999B93F00007A44DD
:10089000240000204C04000010B5092000F0D0FA1C
:1008A00007494860FFF782FF054988600A4651689A
:1008B00092681303981AFFF71DFC0149086010BDE8
:1008C000DC000020014600BFF020084000110A2390
:1008D000584302460807000F8018C0B27047000056
:1008E000002002490860024908607047300A002071
:1008F000400A002008B5FD48407B002877D0FB481F
:100900008069401CF9498861C969884203D2002086
:10091000F64908704AE0F5488069F449096A884256
:1009200044D9F248007B082802D1F049487B38E0DE
:10093000EE48007B072802D1EC49487B31E0EB48C8
:10094000007B042802D1E949487B2AE0E748007B84
:10095000132821D1E548407B2C2817D1E3482030CB
:10096000407A002800D111E0E0482030407A012888
:1009700000D10BE0DD482030407A022800D105E0AC
:10098000DA482030407A032800D100BFD748407BA6
:10099000401ED649487304E0D448007B122800D199
:1009A00000BFD248407B401ED04948730020CF4949
:1009B00088610846407B401E48730846407B0028FB
:1009C00016D10846007B012806D10520C8490870C9
:1009D0000020C649087302E00020C44908730021C2
:1009E000C248203001710020C0490870ABE14EE0E0
:1009F0000120BE4908700846007B01280CD108463A
:100A000080690128F2D0084680693228EED0084675
:100A100080696428EAD096E1B448007B062804D1B6
:100A2000B24880690128E1D08DE1B048007B1128EF
:100A3000DCD1AE484069422814D31220AB49087378
:100A40000021AA4820300171C17100200090A948FE
:100A5000406BA9490969084303461922002118205F
:100A600001F0A8FFA1480069401CA04908610628C0
:100A7000BCD90020086108462030807A002800D0C8
:100A800000BF9A484069801C984948615BE19B48D7
:100A9000C07802210840002847D09448203080794F
:100AA000002814D0914820308079401EC1B28F4870
:100AB000203081718079012808DB00208B49486152
:100AC00008610021894820300171C17108BD00F022
:100AD0002BFA00F061FA85480069401C83490861DF
:100AE00006280BD90020086108464069162800D264
:100AF00000BF7E484069801C7C4948617D48406B4E
:100B00007D49096908430121C902084377494860C2
:100B1000012008707948C078042108400028B5D029
:100B200001217248203001720DE17448C07804211F
:100B300008400028AAD070482030007800282AD128
:100B40006D48406A6E49884243D320210520000742
:100B500000F0DBFF00283CD0674820304078401C84
:100B6000C1B2654820304170322913DB0021417049
:100B70000121017018205D49087301215B48203074
:100B800001710021C1710020034602460146009018
:100B900001F010FF9AE75848406A7D21C900884259
:100BA00016D820210520000700F0AFFF00280CD147
:100BB000514820308078401CC1B24F4820308170AD
:100BC000322902DB00218170017000204749087042
:100BD0007CE749482030007D002827D0FFF75CFEE5
:100BE0004548006841218901884206D2202105201C
:100BF000000700F08AFF002815D03F48806A401C9B
:100C00003D498862142811D300213B4820300175EA
:100C100005203C49087001213748203001733A48CB
:100C20003549086302E00020334988622F482030AC
:100C3000007A002803D000212C482030017200F0F7
:100C400073F900F0A9F92C482030007B00285FD10F
:100C500029482030407B642808DA27482030407B30
:100C6000401CC1B224482030417303E000212248D7
:100C700020304173204800690121C90288431D4981
:100C8000496B0843194948601B482030407B322893
:100C900006DA084640680121C90208431349486042
:100CA000012012490870FFF7F7FD13480068174943
:100CB000884206D220210520000700F026FF0028E8
:100CC00041D00D48806A401C0B498862FF212D31BC
:100CD000884238D305200B4908700121064820308E
:100CE00001730948044908632DE011E05800002011
:100CF0008800002094000020DC000020D0000020AC
:100D00007E040000100A0020701700005E10000032
:100D100000200E4988620846006B002810D0084663
:100D2000006B401E0863084600690121C9020843A0
:100D30000749496B0843074948600120087002E0F1
:100D400000200449087000BFC0E60000DC0000205D
:100D5000940000205800002008B505494143009147
:100D600000BF00BF00994A1E00920029F9D108BDBA
:100D7000B80B000010B5012000F028FE002802D0BA
:100D8000012000F07DFD022000F020FE002802D0AE
:100D9000022000F075FD10BD10B5042000F016FE15
:100DA000002802D0042000F06BFD082000F00EFEA9
:100DB000002802D0082000F063FD10BD10B51020FF
:100DC00000F004FE002802D0102000F059FD202081
:100DD00000F0FCFD002802D0202000F051FD10BDE5
:100DE00010B5074B1A6AFF23034314469C4322465F
:100DF00013460B43AA242343014C236210BD000079
:100E00000020024070B5044600F0B8FC051905E06A
:100E100000F0B4FCA84201D3032070BD064800696D
:100E2000012109040840000C0028F1D103480249BF
:100E300008610020F1E7000000200240118000005E
:100E400070B50446002502F0EDFAE0B202F058FA5F
:100E500002F0F6FA0A4800F0E7FC00BF084800F08C
:100E6000B5FC0128FAD100BF04200549086000BF85
:100E700000BF0846006C80B20546284670BD0000E1
:100E80000024014010B52448C07802210840002801
:100E900003D019202149087510BD2048007D002885
:100EA00005D01E48007D401E1C49087532E0FFF742
:100EB000F3FC1948C07804210840002826D01848BF
:100EC000007804281ADC154800681549097889005B
:100ED000144A5158884211D310488069401C0F4968
:100EE000886132280AD3002088610D480078401CB0
:100EF0000B490870002009490873C8610848007848
:100F0000052807DB05200649087003E00020034997
:100F10008861C86100BFBFE7D0000020DC0000206E
:100F2000100A0020743C0008034800788000034940
:100F30000858034908617047100A0020A03C0008C7
:100F4000DC0000201048C0780221084000281AD098
:100F50000E480078012805D10D480068401D0C4955
:100F6000086008E009480078022804D108480068B1
:100F7000093007490860064800680649884202D9D6
:100F80000846034908607047D00000203000002068
:100F9000000A0020E09304002248006822498842A9
:100FA00003D805202149087026E01E480068204922
:100FB000884203D804201D4908701DE019480068C4
:100FC0001C49884203D803201849087014E01548CA
:100FD00000681949884203D80220144908700BE0C0
:100FE000104800681549884203D801200F4908704D
:100FF00002E000200D4908700020114948630B48A9
:101000000078012806DB0948007880000D4908585F
:101010000B4948630A48406B20210843084948634C
:1010200070470000000A002070940000200A002091
:10103000E028010050BD0100C051020030E602006E
:1010400094000020883C000810B50220FFF7F8FE4D
:101050000B498861084680690A4909684843000BC2
:101060000749C8610520FFF7EBFE0549886108467E
:101070008069044909684843000B0149086210BDB2
:1010800094000020DC00002010B50024FFF704FCD1
:101090000020164908730846006815490969884206
:1010A00003D90520134908701DE010480068104955
:1010B0000968884206D800200E49087001200B49B3
:1010C000087310E001240BE008480068A100084AFA
:1010D0005158884202D80748047003E0601CC4B22B
:1010E000042CF1DD00BFFFF71FFF10BDDC00002066
:1010F000603C0008100A002010B500240720FFF70C
:101100009FFE0446204610BD10B5FFF7C5FB042026
:10111000FFF796FE0449486208460068496A48435A
:10112000000B0149486210BDDC00002010B5002012
:10113000C04300F083FD08210520000700F00AFDF0
:101140000221644800F006FD02210520000700F09E
:10115000F9FC01210520000700F0F4FC01221146F2
:101160000520000700F00BFD0022012105200007EB
:1011700000F01FFD032201210520000700F043FDC0
:101180008021554800F0DEFC01228021524800F009
:10119000F6FC00228021504800F00BFD0322802144
:1011A0004D4800F030FD032201214B4800F0E7FCE0
:1011B00000220421484800F0E2FC0421464800F0E7
:1011C000C1FC00220821444800F0D9FC0821424813
:1011D00000F0B8FC002210213F4800F0D0FC1021A4
:1011E0003D4800F0AFFC002220213B4800F0C7FC46
:1011F0002021394800F0A6FC00220221364800F0E8
:10120000BEFC02221146344800F0E3FC0322802198
:101210000520000700F0B3FC002280210520000714
:1012200000F0D7FC002220210520000700F0A7FCD9
:10123000012220210520000700F0CBFC40210520E1
:10124000000700F07FFC012240210520000700F08C
:1012500096FC002240210520000700F0AAFC032292
:1012600040210520000700F0CEFC012202210520CC
:10127000000700F084FC002202210520000700F096
:1012800098FC032202210520000700F0BCFC01228B
:1012900008210520000700F072FC0022082105202B
:1012A000000700F086FC012202210A4800F067FCDA
:1012B00000220221074800F07CFC032210210520B7
:1012C000000700F05CFC03220121024800F057FCFB
:1012D00010BD0000000800500004005010B50120AF
:1012E000C00200F0BFFA0120C00300F0BBFA724850
:1012F00000F0F9FC714800F0F6FC08210520000719
:1013000000F02EFC012208210520000700F044FC1B
:10131000002208210520000700F053FC0221684844
:1013200000F01EFC01220221654800F035FC00227D
:101330000221634800F045FC03221021052000072C
:1013400000F02AFC002210210520000700F04EFCCE
:10135000032201215A4800F01FFC002201215848B5
:1013600000F044FC02210520000700F0EFFB012201
:1013700002210520000700F00FFC002202210520B9
:10138000000700F01EFC032202210520000700F0E8
:1013900047FC01210520000700F0D8FB012211467F
:1013A0000520000700F0F8FB0022012105200007BE
:1013B00000F007FC032201210520000700F030FCAB
:1013C0008021404800F0C2FB012280213D4800F00E
:1013D000E3FB002280213B4800F0F3FB0322802145
:1013E000384800F01DFC03220121364800F0D4FBF0
:1013F00000220421334800F0CFFB0421314800F0E3
:10140000A5FB002208212F4800F0C6FB08212D482B
:1014100000F09CFB002210212A4800F0BDFB1021A7
:10142000284800F093FB00222021264800F0B4FB5E
:101430002021244800F08AFB00220221214800F0EC
:10144000ABFB032280210520000700F0A5FB002252
:1014500080210520000700F0C9FB00222021052083
:10146000000700F099FB012220210520000700F071
:10147000BDFB40210520000700F068FB0122402150
:101480000520000700F088FB00224021052000070E
:1014900000F097FB032240210520000700F0C0FB6D
:1014A000022204210520000700F0A0FB01224021B8
:1014B000044800F09BFB10BD002C014000200040C0
:1014C0000008005000040050012007494969C20784
:1014D0001143054A516111464969C90FC9070029DD
:1014E00000D00020704700000020024070B5044684
:1014F000012500BF73480078012801D1022070BD8A
:1015000001207049087000BF00BF6F494968072279
:1015100052031140480B6D49096882006C4B9A5880
:101520001288D205D20D914246D16849496882009D
:101530009A5812681201920D91423DD1634909698E
:1015400082009A5812689203D20D914234D15F49B9
:10155000896882009A589288D205D20D91422BD187
:101560005A49C96882009A5852681201120D914274
:1015700022D15649496982009A5892689203920B87
:10158000914219D15149896982009A58D2689203CF
:10159000920B914210D14D49C96982009A58128A22
:1015A00092B2914208D14949096A82009A58126957
:1015B0009200920C914248D000BF8100444A515899
:1015C0000988C905C90D414A11608100404A515836
:1015D00009680901890D3D4A516081003C4A515812
:1015E00009688903C90D394A11618100384A515887
:1015F0008988C905C90D354A91608100344A51581E
:1016000049680901090D314AD1608100304A5158B9
:1016100089688903890B2D4A516181002C4A5158F0
:10162000C9688903890B294A91618100284A515868
:10163000098A89B2254AD1618100254A5158096930
:101640008900890C214A116200BF00BF2078C007C1
:10165000C00F002804D0A088C04380B21D49C862D2
:10166000022120680840002805D0E1680902A0682E
:10167000084318494862082120680840002803D020
:1016800061692069FFF7ACFB1248406901214904F8
:10169000084310494861084640690121090608438A
:1016A0000C494861FF200949803908607D20C0004D
:1016B000FFF7A8FB054600BF00200249087000BFE5
:1016C00028461CE740000020001002400021024094
:1016D0001C3C000800200240044840690121C90662
:1016E0000843024948610120704700000020024081
:1016F00001200749496982071143054A5161114692
:10170000496982071140002900D00020704700007D
:10171000002002400120094949698207114000293F
:101720000BD00749054AD1600649D1601146496985
:1017300082071140002900D100207047002002409C
:101740003B2A19087F6E5D4C002009494969C90F81
:10175000C90700290BD00749054A916006499160E5
:1017600011464969C90FC907002900D001207047F7
:101770000020024023016745AB89EFCD0148006896
:10178000704700001400002000BFFEE770B504465B
:101790000D460026204600F01FF8002810D1A96849
:1017A00068680843E9680843E168074A114008434C
:1017B000E06020690001000929680843206100E019
:1017C0000126304670BD0000C7BFFFFF0146086814
:1017D000042210408008704701468868C007C00F87
:1017E000012250405040704770B505460C46002617
:1017F0002846FFF7F1FF00280CD1616820680843F4
:10180000A1680843E1680843E968044A11400843B5
:10181000E86000E00126304670BD00003FC2FEFFD8
:101820004A05520D826270478168024A1140091DC3
:1018300081607047E8FFFF7F024909688143014AE0
:10184000116070474010024008B50549096801431E
:10185000034A1160114609680140009100BF08BDAC
:101860004010024008B5054909680143034A116068
:10187000114609680140009100BF08BD40100240B8
:101880000149C860704700000018024002494968D9
:101890008143014A516070478018024002494968FB
:1018A0008143014A516070470018024002490968AB
:1018B0008143014A1160704780180240024909685B
:1018C0008143014A1160704700180240024949688B
:1018D0000143014A5160704780180240024949683B
:1018E0000143014A516070470018024002490968EB
:1018F0000143014A1160704780180240024909689B
:101900000143014A116070470018024070B5044657
:101910000025207900284ED02068002851D0607919
:10192000002804D0012809D0022815D10DE0206834
:10193000FFF7ACFF2068FFF7D9FF0FE02068FFF743
:10194000B5FF2068FFF7C2FF08E02068FFF7CEFF71
:101950002068FFF7BBFF01E0012500BF00BFA079B1
:1019600000282ED0A079012804D002280DD0032809
:101970001DD115E02068144949688143124A51601D
:1019800000BF2068FFF7BAFF14E020680E4909681D
:1019900081430D4A116000BF2068FFF79FFF09E0F7
:1019A0002068FFF7ABFF2068FFF798FF02E00220F6
:1019B000054300BF05E02068FFF778FF2068FFF7C8
:1019C00065FF284670BD000000180240014604482B
:1019D000C0680840884201D1012070470020FCE720
:1019E0000018024070B50C02230E0C04220E074CA6
:1019F0008D072D0F64591D469540AC430546954013
:101A00002C43024D8E07360FAC5170BD601802405A
:101A1000F0B502460B46002661E00124B440196887
:101A2000214000295AD0586814680D464D436F0074
:101A3000ED19AC430D464D4345432C43146000BFA4
:101A40005868012802D0586802280DD19868946817
:101A50000D464D436F00ED19AC430D464D434543D4
:101A60002C43946000BF00BF1869D4680D464D43F5
:101A70006F00ED19AC430D464D4345432C43D460F4
:101A800000BF5868022829D1FF2911D85869146A63
:101A90000D464D434D434D43EF007D1BAC430D467A
:101AA0004D434D434D4345432C43146200BF15E065
:101AB0005F69080A40430C0A60430C0A6043C40093
:101AC000241A506AA0430C0A64430D0A6C430D0AA1
:101AD0006C437C432043506200BF00BF761C1868F3
:101AE000F040002899D15868012802D0586802288F
:101AF00009D1DC68186855688543074667433D434C
:101B0000556000BF00BF0020F0BD024610690840CC
:101B1000884201D1012070470020FCE7024610698D
:101B20000840884201D1012070470020FCE70246AE
:101B300010690840884201D1012070470020FCE76D
:101B4000816270478162704781627047816270472D
:101B50008161704781617047816170478161704721
:101B60008161704730B503680C464C4365006419C9
:101B7000A3430C464C4354432343036030BD30B56C
:101B800003680C464C4365006419A3430C464C4360
:101B900054432343036030BD30B503680C464C43C7
:101BA00065006419A3430C464C435443234303602C
:101BB00030BD10B543688B430C4654432343436008
:101BC00010BD10B543688B430C4654432343436018
:101BD00010BD30B5C3680C464C4365006419A3437F
:101BE0000C464C4354432343C36030BD30B5C368F7
:101BF0000C464C4365006419A3430C464C435443C4
:101C00002343C36030BD30B583680C464C43650048
:101C10006419A3430C464C4354432343836030BDB3
:101C200030B583680C464C4365006419A3430C46E9
:101C30004C4354432343836030BD000008B505493D
:101C4000496B0143034A51631146496B01400091BE
:101C500000BF08BD0010024070B504467D25ED00B0
:101C600029462046FEF746FA401E044948610020F6
:101C700088610520086100BF70BD000000E000E041
:101C800030B50246002000BF1369DB07DB0F0124DB
:101C900063406340002B01D0012007E04C680B68D3
:101CA0002343D468024D2C402343D36030BD000051
:101CB000FFF1BFFF014908607047000000000020ED
:101CC0000121C94301617047016849084900016069
:101CD0007047C16849084900C16070470168012226
:101CE0001143016070470168012211430160704790
:101CF000C16801221143C1607047C16801221143CC
:101D0000C160704710B5024613681748824205D17A
:101D100018467024A0434C68204303461248824270
:101D200002D01248824206D1184603242402A0435E
:101D3000CC682043034613608868D06200BF0888DF
:101D4000906200BF0848824202D00848824203D114
:101D5000087C106300BF00BF00BF5069012420430E
:101D6000506100BF002010BD002C01400020004049
:101D70000146C868C007C00F01225040504070475C
:101D800008B501460A4A1269009200BF0846421C83
:101D9000002A00D0401C07E0054A126901231B04F9
:101DA0001A40002A00D0401E0028F5D108BD0000CE
:101DB00000E000E070470000C206D20E0121914011
:101DC000014A11607047000000E100E0C206D20E37
:101DD00001219140014A11607047000000E100E0DC
:101DE00010B5002819DA1A4A03071B0F083B9B0895
:101DF0009B00D2588307DC0EFF23A3409A438B0736
:101E00001B0E8407E40EA3401A43114B0407240F52
:101E1000083CA408A4001A5118E00E4A03231B0230
:101E2000D21883089B00D2588307DC0EFF23A340FF
:101E30009A438B071B0E8407E40EA3401A43054BFD
:101E4000032424021B198408A4001A5110BD0000A9
:101E50001CED00E000E100E010B5002819DA1A4A94
:101E600003071B0F083B9B089B00D2588307DC0E1F
:101E7000FF23A3409A438B071B0E8407E40EA34065
:101E80001A43114B0407240F083CA408A4001A515C
:101E900018E00E4A03231B02D21883089B00D25875
:101EA0008307DC0EFF23A3409A438B071B0E840796
:101EB000E40EA3401A43054B032424021B19840893
:101EC000A4001A5110BD00001CED00E000E100E08C
:101ED00038B50024FE48C078C007C00F00287CD069
:101EE000FB48C078FE210840F949C870F9480079DC
:101EF000002807D10021F74801710020F549203959
:101F000048730873F3482038407B002865D1F248B5
:101F1000C0780028E3D0F148007A0128DFD0002003
:101F2000EC4920390870022105200007FFF716FE52
:101F3000FA2401E0601EC4B2002CFBD1FEF7ACFC19
:101F4000FEF7F2FFFFF728F8E3480079002807D0F2
:101F5000E1480079401EE0490871E148C86203E0A9
:101F6000DF48C830DC49C862DE48007B00281FD04B
:101F70000120DC4908730020DB4908700420D549A2
:101F8000203908730121D3480171C171FEF7CCFFDC
:101F9000FFF702F800200090CF48406BD149096953
:101FA000084303460F220021142000F003FD38BD32
:101FB000CC480068CA491E39884221D80120C94945
:101FC00008730020C84908700420C24920390873EA
:101FD0000121C0480171C17100E0FDE1FEF7A4FFDD
:101FE000FEF7DAFF00200090BB48406BBD4909694D
:101FF000084303460F220021142000F0DBFCD6E743
:10200000B8480068B949884211D80021B548203045
:1020100001730020B34988620863AD48C078042189
:102020000840002803D00121AE482030017500206F
:10203000A9490870487000F0D1FEAA48007B00282A
:1020400003D1A948007800281FD10120A5490873B1
:102050000020A549087004209E49203908730121F9
:102060009C480171C171FEF75FFFFEF795FF0020EC
:1020700000909948406B9B490969084303460F2229
:102080000021142000F096FC91E7002192482030B6
:1020900001763224082105200007FFF755FD01E0F5
:1020A000601EC4B2002CFBD10220FEF7C9FE8A4993
:1020B0008861082105200007FFF750FD86488069E8
:1020C000FF210901884207D983482030007E401C47
:1020D000C1B28148203001767D20C00001F02EFA87
:1020E0003224082105200007FFF72EFD01E0601EC5
:1020F000C4B2002CFBD10220FEF7A2FE7649886113
:10210000082105200007FFF729FD73488069FF219A
:102110000901884207D970482030007E401CC1B2B6
:102120006D48203001766F480068E121090188423E
:1021300004D86E48F0386849486203E06B48DC38E0
:1021400065494862644880696349496A88421AD887
:102150000620604920390873FEF71EFFFEF7E4FEF3
:1021600001215C4801710021C171002000905A4892
:10217000406B5C49096908430346C82200210120DD
:1021800000F018FC13E754482030007E022819DBC9
:10219000002151482030017607204E49203908732C
:1021A00001214C480171C171002000904A48406BE8
:1021B0004C4909690843034619220021042000F014
:1021C000F9FBF4E600214448203001763224022154
:1021D0004748FFF7B9FC01E0601EC4B2002CFBD1F8
:1021E0000520FEF72DFE3C49886102214048FFF79B
:1021F000B5FC39488069FF210901884207D9364872
:102200002030007E401CC1B23348203001767D2052
:10221000C00001F093F9322402213548FFF794FC05
:1022200001E0601EC4B2002CFBD10520FEF708FEC1
:102230002949886102212E48FFF790FC26488069D1
:10224000FF210901884207D923482030007E401C25
:10225000C1B22148203001761F4880691E49496A71
:1022600088421AD806201B4920390873FEF794FECD
:10227000FEF75AFE0121174801710021C1710020AB
:1022800000901548406B1749096908430346C82266
:102290000021012000F08EFB89E60F482030007EEF
:1022A000022827DB07200B49203908730121094840
:1022B0000171C171002000900748406B094909690C
:1022C0000843034619220021042000F073FB6EE648
:1022D000D00000207800002094000020880000201A
:1022E000020D0000DC000020100A00205E1000003B
:1022F000000800505021EF4801720020ED492039BC
:102300000875ED480078012835D108468078002806
:1023100017D000208870C820087300208873487385
:10232000C87301200870082105200007FFF70CFC86
:102330000020E049203948700221E048FFF70EFCF8
:1023400036E00120DB49203988700020087388734B
:10235000C82048730020C8730870082105200007B2
:10236000FFF7FCFB0120D349203948700221D348F4
:10237000FFF7EAFB1CE0D0480078022818D1C820FB
:10238000CC492039087300208873C8204873002086
:10239000C87301200870082105200007FFF7D4FB4F
:1023A0000120C449203948700221C448FFF7CCFB02
:1023B0000221C348817105200007FFF7C5FB4021BA
:1023C00005200007FFF7CAFB00F0E6FABD48C07819
:1023D00002210843BB49C870BA48C07802210840AE
:1023E00000287DD0B348007A002816D10820B449CF
:1023F000203908730121B2480171C1710020009099
:10240000AC482038406BB04909690843034619229B
:1024100000210A2000F0CEFAC9E5A648203800784D
:10242000002836D0A3482038807C002831D00220F4
:10243000FEF706FD9F49203988610846807C002808
:1024400027D008468069FF21F531884221D3994879
:10245000203880699D4988421BD20620984920393E
:102460000873FEF799FDFEF75FFD012194480171A5
:102470000021C171002000908E482038406B9249A5
:10248000096908430346C8220021012000F092FA9E
:102490008DE5884820384078002838D08548203895
:1024A000C07C002833D00520FEF7CAFC81492039C2
:1024B00088610846C07C002829D008468069FF2131
:1024C000F531884223D97B48203880697F4988428A
:1024D0001DD206207A4920390873FEF75DFD00E021
:1024E000D8E0FEF721FD0121754801710021C1717D
:1024F000002000906F482038406B734909690843F9
:102500000346C8220021012000F054FA4FE5694833
:102510002038007C01285BD10020664920390874EE
:10252000FEF7BAF9684800686949884206D86148E8
:102530002038007D401C5F49203908755D482038EF
:10254000007D03281ADB04205D492039087301212E
:102550005B480171C171FEF7E7FCFEF71DFD00202D
:10256000009054482038406B574909690843034696
:102570000F220021142000F01DFA18E5FEF764FD7B
:102580004C4A203AD169D26AC8235A431046FDF713
:10259000B1FD48492039886008468068C82802D3C0
:1025A000C820087314E0434820388068322804D8D3
:1025B00032204049203908730AE03E4920398968B1
:1025C00049430846C821FDF795FD3A49203908736B
:1025D00038482038407C01286AD10020354920390C
:1025E0004874FEF759F9384800683949884206D8D6
:1025F00030482038007D401C2E49203908752D4870
:102600002038007D03281ADB04202D492039087367
:1026100001212B480171C171FEF786FCFEF7BCFC5D
:102620000020009023482038406B2749096908435F
:1026300003460F220021142000F0BCF9B7E4FEF796
:1026400003FD1C4A203A116AD26AC8235A43104635
:10265000FDF750FD17492039886008468068C82872
:1026600002D3C820087323E012482038806832283B
:1026700004D832200F492039087319E00D49203958
:10268000896849430846C821FDF734FD09492039C6
:1026900048730DE000200749203908704870082170
:1026A00005200007FFF75AFA02210448FFF756FAFF
:1026B00000BF7CE4B400002030000020000800507F
:1026C00078000020D0000020DC000020E40C000096
:1026D000360B000008B51448C078022108400028D5
:1026E00020D0FEF7FDF81120104908734869162123
:1026F000FDF700FD0D48416100200C4908610021F3
:102700000A4820300171C171002000900848406BD8
:102710000849096908430346FF222D3200210120A0
:1027200000F048F908BD0000D0000020580000204B
:1027300094000020DC0000207047000008B5022152
:102740008448FFF7EBF9002806D083480078012180
:1027500008438149087005E07F480078FE21084061
:102760007D490870FEF7D0FC7C48406AAF218900A3
:10277000884206D3784800780421084376490870D7
:1027800005E075480078FB210840734908707248DD
:1027900000787149497888427ED06F488078032854
:1027A00005DA6D488078401C6B498870D1E06A4832
:1027B0000078C007C00F00280BD067484078C007DA
:1027C000C00F002805D16448C07801210843624940
:1027D000C87061480078C007C00F00281AD15E4851
:1027E0004078C007C00F002814D05B48C078FE2195
:1027F00008405949C8705A484069162804D2012136
:1028000057482030817203E0002155482030817202
:10281000FFF760FF504800780421084000282FD0BF
:102820004D484078084000282AD14020052109075A
:10283000886200BF02204B4908710846C078002812
:1028400010D11920464908730021454820300171F4
:10285000C1710020431EC82201460090012000F0F3
:10286000A9F800E000BF01203E49C87001213B48A3
:10287000203001753848C078042108433649C870B3
:102880003548007804210840002837D13248407884
:102890000840002832D000E058E02F48C078FB21E3
:1028A00008402D49C87000202C49886200212B481F
:1028B000203001750173417302202A4908712748AD
:1028C00020300078002815D10D20254908730021FB
:1028D000234820300171C171002000902148406BD5
:1028E0001E49096908430346FF22F53200210120F1
:1028F00000F060F800211948203001701648007877
:1029000008210840002809D01348407808400028D2
:1029100004D11148C07808430F49C8700E480078A8
:102920000821084000280AD10B48407808400028B8
:1029300005D00948C078F72108400749C870002031
:102940000549887008460078487002E00020024976
:10295000887008BD00040050D0000020DC0000207A
:10296000580000209400002010B502210748FFF70E
:10297000D5F8002805D0064800780121084304490D
:102980000870034800780249487010BD00040050E8
:10299000D000002070470000034804490860C0438D
:1029A0000349086070470000AAAA5555300A002064
:1029B000400A0020F8B504460D4616461F46402042
:1029C00005210907886200BFFEF7AEFA0020124910
:1029D000087048701148C078FE2108400F49C8703F
:1029E0000846C078FD2108400C49C8700821052020
:1029F0000007FFF7B1F802210948FFF7ADF8002002
:102A00000849886108464473C561066247600698B4
:102A10008860FDF765FFF8BD94000020D00000201D
:102A20000008005058000020064800680649884207
:102A300004D006480068C943884201D1012070478C
:102A40000020FCE7300A0020AAAA5555400A0020C1
:102A500010B52D48407B002819D12C48C0780221A0
:102A60000840002813D12948C078042108400028D4
:102A700008D02748007B002809D025482038006B63
:102A8000002804D122482038007D002803D01E20D1
:102A90002049087036E01F480078002832D11D48D0
:102AA000C079002804D000201A49C871FEF7ECFA5A
:102AB00000211548203041710020174908704870E6
:102AC000082105200007FFF74BF802211348FFF704
:102AD00047F800F041FDFEF701FC0120FEF7EEFE95
:102AE0000220FEF7EBFE2020FEF7E8FE0120FEF7B5
:102AF000D5FE0220FEF7D2FE2020FEF7CFFE1E20DC
:102B00000449087010BD000058000020D0000020CB
:102B1000FC000020880000209400002000080050E5
:102B200000B58BB0182105A8FDF715FBFC2005901A
:102B300000200690032007900020089002200990B2
:102B400005A9A348FEF764FFFC21A148FEF7FEFF9C
:102B5000082105200007FFF703F802219C48FEF733
:102B6000FFFF022105200007FEF7FAFF00221021D7
:102B700005200007FFF710F80222102105200007AA
:102B8000FFF734F8002201219148FFF705F80222EF
:102B900001218F48FFF72AF80122022105200007B2
:102BA000FEF7FAFF0022022105200007FFF709F8CF
:102BB0000322022105200007FFF732F8012105203A
:102BC0000007FEF7C3FF0122114605200007FEF7AC
:102BD000E3FF0022012105200007FEF7F2FF032298
:102BE000012105200007FFF71BF804217948FEF7B3
:102BF000ADFF012204217748FEF7CEFF0022042119
:102C00007448FEF7DEFF08217248FEF79FFF01229D
:102C100008217048FEF7C0FF002208216D48FEF72A
:102C2000D0FF10216B48FEF791FF01221021694867
:102C3000FEF7B2FF002210216648FEF7C2FF2021F6
:102C40006448FEF783FF012220216248FEF7A4FFBB
:102C5000002220215F48FEF7B4FF002202215D48D8
:102C6000FEF79AFF022211465A48FEF7BFFF0022E4
:102C7000802105200007FEF78FFF0022802105201C
:102C80000007FEF7B3FF0022202105200007FEF712
:102C900083FF0122202105200007FEF7A7FF002265
:102CA000402105200007FEF777FF00224021052084
:102CB0000007FEF79BFF002201214648FEF76CFF4C
:102CC000002201214348FEF791FF00228021414864
:102CD000FEF762FF012280213E48FEF787FF0122B6
:102CE000082105200007FEF757FF032208210520D1
:102CF0000007FEF795FF0022082105200007FEF7D8
:102D000060FF012202213248FEF746FF0322022122
:102D10002F48FEF785FF002202212D48FEF751FFC4
:102D20000022042105200007FEF760FF0022402159
:102D30002848FEF75BFF00200390049002200390D8
:102D400001216846017441740321817403A8FEF7D0
:102D5000DDFD6121C9020120FEF744FE00210520AE
:102D6000FFF77AF80520FFF731F800200190029074
:102D70002020019001216846017241720321817275
:102D800001A8FEF7C3FD14490020FEF72BFE002129
:102D90000720FFF761F80720FFF718F801200190DE
:102DA00001216846017241720321817201A8FEF778
:102DB000ADFD032109040120FEF714FE00210520CA
:102DC000FFF74AF80520FFF701F80BB000BD00003F
:102DD00000080050000400500108010000B5002266
:102DE0001548007D002823D114480078012819DBFC
:102DF0001348C07804210840002801D0462200E092
:102E000000220D4801680D480078401E80000D4BDF
:102E10001858801881420BD808480078401E07498E
:102E2000087005E001200449087300200349087078
:102E3000FEF77AF800BD0000DC000020100A002038
:102E4000D0000020603C000810B5FEF755F9174986
:102E50000860084600681649884206D302201549D2
:102E600008700020144908721BE0104800686428AC
:102E700006D801200F49087000200F49087210E0A1
:102E80000A4800687D21C90088420AD307480068C3
:102E90000A49884205D800200649087001200649E1
:102EA0000872044800780349487010BD3C000020B7
:102EB000E40C00003000002088000020B80B000067
:102EC00008B54C48C0780221084000280BD00020EB
:102ED00049490870494908604949087049480078DB
:102EE0004849487008BD44480078401CC0B2424977
:102EF00008700A287CDB00200870FEF7FDF84249C4
:102F00000860084600684149884203D302203D49D1
:102F1000087015E03C480068642803D8012039494E
:102F200008700DE0384800687D21C900884207D349
:102F3000354800683649884202D800203149087077
:102F4000304800782F49497888424ED02C48007884
:102F5000401C2B49087008460078032848DB2948A4
:102F60000078002812D101202A4908722A48407AA4
:102F7000022803D10021284841721CE02648407AEB
:102F8000032818D101212448417214E01D4800781B
:102F9000012806D100201F49087202211E484172F3
:102FA00009E018480078022805D100201949087264
:102FB0000321194841721320174920390873002151
:102FC00015480171C171002000901448406B1449EC
:102FD000096908430346042200212C20FFF7EAFC7C
:102FE000084800780749487002E00020044908704A
:102FF00000BF77E7D000002033000020340000201D
:1030000032000020300000203C000020E40C0000D2
:10301000B80B0000880000207800002094000020F9
:10302000DC0000207047000010B50D484068000C1F
:1030300000040C490968084309494860084640688B
:10304000094908400749403189880904084304496F
:103050004860C803054988606420FDF77DFE10BD07
:10306000001002400001FF1FFFFF00FE00ED00E026
:1030700010B578480069C007C00F002874D07548A3
:10308000FEF776FE0028F9D000BF0120C043714949
:10309000086100BF70480078401C6F4908706F4895
:1030A0000078002849D06D48007B00280FD16C487B
:1030B000C078FD2108406A49C870002067498873BC
:1030C0008874082105200007FEF742FD35E06348BB
:1030D000807BC82805DA6148807B401C5F49887383
:1030E00002E000205D4988735C48807B5B49097B76
:1030F000884205DA082105200007FEF721FD04E0DB
:10310000082105200007FEF723FD5448807B08288E
:1031100002D10120514908745048807B012809DD03
:103120004E48817B007B401E814203DA01204B49DF
:10313000887402E000204949887448484078002893
:1031400047D04648407B00280FD14548C078FD2134
:1031500008404349C87000204049C873C874022120
:103160004048FEF7F5FC34E073E03C48C07BC828DB
:1031700005DA3A48C07B401C3849C87302E0002099
:103180003649C8733548C07B3449497B884204DAE4
:1031900002213448FEF7D4FC03E002213148FEF757
:1031A000D7FC2E48C07B082802D101202B49487447
:1031B0002A48C07B012809DD2848C17B407B401E8E
:1031C000814203DA01202549C87402E00020234926
:1031D000C874254840780A2805DA23484078401CFE
:1031E0002149487035E001201F49487008710846A0
:1031F00080780A2804DA08468078401C887028E025
:1032000001201949887048710846C0780A2804DAF4
:103210000846C078401CC8701BE001201249C870E5
:103220008871FDF78FFE0D482030007A002807D006
:103230000A482030007A401EC1B20848203001728E
:1032400009480078002804D007480078401E064945
:10325000087010BD002000400D00002094000020E8
:10326000D0000020000800508800002010B5094858
:103270000069C007C00F00280BD00648FEF778FD94
:10328000002806D000BF0120C0430249086100BFEA
:1032900000BF10BD002C01402021020C01D01021E4
:1032A0001046020A01D010460839020901D0104622
:1032B000091F820801D01046891E420801D0881ECD
:1032C0007047081A704730B47446641E2578641C31
:1032D000AB4204D3635D5B00E31830BC18471D4666
:1032E000F8E702E008C8121F08C1002AFAD17047A7
:1032F0007047002001E001C1121F002AFBD1704776
:1033000010B504462300FFF7DEFF0A06101B263126
:103310003C46505A5F6F032202213548FEF722FCDB
:1033200001213448FEF77CFA5FE0032208210520E2
:103330000007FEF717FC30492E48FEF771FA54E0FB
:103340000322102105200007FEF70CFC2B49294819
:10335000FEF766FA49E00322402105200007FEF748
:1033600001FC27492348FEF75BFA3EE00322802157
:1033700005200007FEF7F6FB22491E48FEF750FA2B
:1033800033E0032201212048FEF7ECFB1F491948D6
:10339000FEF746FA29E0032240211548FEF7E2FB3A
:1033A0001B491448FEF73CFA1FE003220121104894
:1033B000FEF7D8FB17490F48FEF732FA15E0164919
:1033C0000C48FEF72DFA10E014490A48FEF728FAD7
:1033D00001208005124909680322920591430143A7
:1033E0000F4A116000BF00E000BF00BF10BD000029
:1033F0000004005000240140020000040400000802
:103400000800000C100000100008005020000014FC
:10341000400000188000001C000100A0000200A471
:103420000827014000BF0448806804490840801C08
:103430000149886000BF704700240140E8FFFF7F1A
:1034400000B500BF0548806805490840401C034995
:10345000886000BF082000F071F800BD0024014022
:10346000E8FFFF7F00B58BB03148006B01210905F3
:1034700008432F4908630846006B0121090588436A
:103480002B4908630120000529494031096801439F
:10349000274A40321160114609680140019100BF7E
:1034A00000BF00200790089009900A9003900490B4
:1034B00005900690029090050790002009900A90D0
:1034C000089007A91B48FEF761F9072019494969C7
:1034D00081430143174A516100BF002005909014B9
:1034E000069000200490039003A91046FEF77CF993
:1034F00000BF10488068C007C00F01214840484005
:10350000002813D100BF0B4880680B490840090709
:1035100040180849886000BF00BF00BF05488068A8
:10352000C00F0028F9D10120FEF72AFC0BB000BD26
:103530000010024000240140E8FFFF7F002108E066
:10354000002202E000BF531C9AB2202AFADB4B1C77
:1035500099B28142F4DB704710B58F48FEF7B4FB97
:103560008E48FEF7B1FB8C48FEF7AAFB8A48FEF7AF
:10357000B0FB8A48FEF7A4FB8848FEF7AAFB0120AF
:10358000C002FEF759F90120C003FEF755F9FDF717
:10359000BBFD8348406AAF218900884203D30120E4
:1035A0008049087002E000207E490870FFF73AFF6A
:1035B00000BF7D487D49086000BFFFF7B1FA0221D6
:1035C0007B48FEF7B4FA002803D00120794908703F
:1035D00002E0002077490870202105200007FEF74F
:1035E000A6FA002803D001207349087002E00020E9
:1035F0007149087001216E48FEF799FA002803D03E
:1036000001206E49087002E000206C49087000BF7C
:10361000FFF708FF00F082F969480069022188433A
:103620006749086101208003664909680322920303
:1036300091430143634A116000BF012011460968AC
:1036400042049143420411435E4A116000BF00BF2F
:103650005D480069042108435B49086100BF40BF21
:1036600020BF20BF00BF0846006904218843564997
:10367000086100BF524800690221084350490861AF
:1036800000BF49484949086000BF02214848FEF789
:103690004EFA002803D001204C49087002E00020B7
:1036A0004A490870202105200007FEF740FA00284B
:1036B00003D001204649087002E000204449087008
:1036C00001213B48FEF733FA002803D0012041498D
:1036D000087002E000203F490870FDF7DDF8FDF7B3
:1036E00013FD2F48406AAF218900884203D301208F
:1036F0003949087002E000203749087029480078ED
:103700003549097888421BD12A4800782F49097821
:10371000884215D1284800782D49097888420FD170
:10372000264800782B490978884209D11C48203066
:10373000007B002813D01A480068284988420ED21E
:1037400017482030007B00280AD01548006823491C
:10375000884205D2002112482030017300E057E76B
:103760000120C002FEF77EF80120C003FEF77AF8C0
:103770000948FEF7A5FA0848FEF7BFFA0748FEF722
:103780009FFA0648FEF7B9FA0348FEF7ACFA034879
:10379000FEF7A9FA10BD0000002C014000200040F7
:1037A000DC00002028000020AAAA00000030004011
:1037B00000040050260000202700002029000020DF
:1037C00000E000E00070004000ED00E02A00002072
:1037D0002B0000202D0000202C000020D20F000024
:1037E00000BF1948006A012108431749086200BF59
:1037F00000BF00BF1448006A0221084040080028AA
:10380000F7D000BF11481249086000BF00BF11483F
:10381000086000BF0320486000BF0F48886000BFF9
:1038200000BF00BF0A48C0688007800F002801D190
:10383000012000E000200028F3D000BF0748044921
:10384000086000BF7047000040100240CCCC000070
:103850000030004055550000B80B0000AAAA000037
:103860003EB50020019002900120400728490968D8
:103870008143274A116000BF00BF114649680143D8
:10388000516000BF00BF2348006A0121084321495D
:10389000086200BF00BF00BF1E48006A0221084046
:1038A00040080028F7D048041A4C6469FF252D020F
:1038B0002C402146174C64692C40A2080C46144346
:1038C0002346144C64690325AD04AC4305461D43EF
:1038D0002C43104D6C6100BF40030E494039C96B49
:1038E00001430C4A403AD1631146C96B0140009133
:1038F00000BF00BF0720400201900020029001A9F4
:103900000548FEF7BDF9002801D0FCF7E2FE3EBDF8
:103910008018024040100240007C004010B500BFFB
:1039200014488068022108431249886000BF00BF24
:1039300008460069012108430E49086100BF481587
:103940008969090C090401430A4A916100BF0220F8
:1039500011460969062291430143064A116100BFDD
:103960001046406802210843114648609620FFF740
:10397000E5FD10BD007C004008B5FCF7ADFE00F091
:10398000ADF8FDF7D3FBFFF76DFDFFF729FF00F062
:103990000DF900F0DBF8FFF763FFFFF7BFFF022030
:1039A000454909690140814201D1012100E000211E
:1039B000002903D1FFF738F8002823D001203F4920
:1039C000C87000203E49087206203E490873FDF782
:1039D000E3FAFDF7A9FA01213A48203001710021EC
:1039E000C171002000903548406B37490969084390
:1039F0000346C82200210120FEF7DCFF1E203049CB
:103A000008702AE001202F49087301212D48203039
:103A100001710021C1710020431E962201460090D1
:103A20000120FEF7C7FF01202549C8710020274962
:103A3000086005202649087000202149C8711F49E7
:103A4000C87008711E490872FDF71EFBFDF7A4FA45
:103A50001E201B4908700020C871FFF7F5F9FEF71A
:103A600083FFFCF73DFF25E0FEF732FA14480079AA
:103A7000002804D0002012490871FFF721FA1048ED
:103A8000407900280BD000200D49487100BF114833
:103A90001149086000BFFEF751FEFCF72BFF0848F4
:103AA0008079002806D0002005498871FDF7EAF9E1
:103AB000FEF7CEFFD8E7000000040050940000207D
:103AC0008800002058000020DC000020000A0020B0
:103AD000200A0020AAAA00000030004000B587B0EC
:103AE0001948006A032149030840012189038842DB
:103AF0000ED11548006A89110840884208D1124841
:103B0000006A0721490208400121C902884219D0F0
:103B1000182101A8FCF71FFBFDF716FEFDF7FAFDC3
:103B2000082001907F200002059059200002069095
:103B300001A8FDF7DBFCFDF7C7FCFDF7D9FDFDF79C
:103B4000CBFD00BF07B000BD0020024000B585B02E
:103B50000120C003FDF778FE14216846FCF7FBFA4C
:103B60000020039001901721684601806320029095
:103B700000216846017469460B48FEF7C3F800BF90
:103B80000120C0430849086100BF0846FEF7B0F8AD
:103B90000548FEF7A3F81320FEF70EF901211320C4
:103BA000FEF71EF905B000BD0020004000B585B04D
:103BB0000120C002FDF748FE14216846FCF7CBFA4D
:103BC0000020039001901721684601803120029067
:103BD00000216846017469460F48FEF793F800BF5C
:103BE0000D48406C0121C90308430B49486400BFDC
:103BF00000BF0120C043086100BF0846FEF778F807
:103C00000548FEF76BF80D20FEF7D6F800210D20D1
:103C1000FEF7E6F805B000BD002C01401C01FF1FB7
:103C20001C01FF1F1C01FF1F1C01FF1F1C01FF1FA8
:103C30003001FF1F1C01FF1F1C01FF1F00000000BF
:103C40000404040000080000000800000800000050
:103C50000800020406080A0C00010203040506001D
:103C6000E40C0000740E0000A60E0000EC0E000034
:103C7000780F00001A0E0000EC0E0000280F000064
:103C8000500F0000BE0F00002000000021000000C7
:103C900023000000270000002F0000003F0000006C
:103CA0000008000040080000C0080000C009000033
:103CB000C00B0000C00F0000D83C0008000000202E
:103CC00040000000E2320008183D000840000020DB
:103CD000D8040000F232000800366E010000000037
:103CE00000000002030000000000000000000000CF
:103CF00004000000010000000000000000000000BF
:103D000000000000000000000000000000000000B3
:083D10000A00000000000000A1
:04000005080000C12E
:00000001FF
